:020000040040BA
:10000000402C4020C90A4000C70A4000C70A4000EF
:10001000C70A4000C70A4000C70A400000000000AD
:10002000000000000000000000000000C10E4000C1
:10003000C70A400000000000610F4000C50F4000EB
:10004000C70A4000C70A4000C70A4000C70A40006C
:10005000C70A4000C70A4000C70A4000C70A40005C
:10006000C70A4000000000008D054000A1054000C7
:10007000B5054000C70A4000C70A4000C70A400053
:10008000C9054000DD054000C70A4000C70A40001E
:10009000C70A4000C70A4000C70A4000C70A40001C
:1000A000C70A4000C70A4000C70A4000C70A40000C
:1000B000C70A4000C70A4000C70A4000C70A4000FC
:1000C000C70A4000C70A4000C70A4000C70A4000EC
:1000D000C70A4000C70A4000C70A4000C70A4000DC
:1000E000C70A4000C70A4000C70A4000C70A4000CC
:1000F000C70A4000C70A4000C70A4000C70A4000BC
:10010000C70A4000C70A4000C70A4000C70A4000AB
:10011000C70A4000000000000000000000000000CE
:10012000C70A4000C70A4000C70A4000C70A40008B
:10013000C70A4000C70A4000C70A4000C70A40007B
:10014000C70A4000C70A4000C70A4000C70A40006B
:10015000C70A4000C70A4000C70A4000C70A40005B
:10016000C70A4000C70A400010B5054C237833B9D0
:10017000044B13B10448AFF300800123237010BD7A
:10018000B809402000000000248C40000C4B43B113
:100190000C480D4910B5AFF300800C48036823B933
:1001A00010BD0A48036833B97047094B002BF7D0DC
:1001B000BDE810401847064B002BF5D0184700BF8C
:1001C00000000000248C4000BC094020248C40002A
:1001D0000000000010B51048104B98473E21002049
:1001E0000F4B98470F4CA0470028FCD00E4B984768
:1001F0000E4A0F4B9A620F4CA0470028FCD00220F9
:100200000D4B984700200D4B98470D4B98470248DF
:10021000024B984710BD00BF80D1F0089D0C4000F4
:100220008D064000E1064000F1064000013F182025
:1002300000060E4001074000F1054000290640007D
:10024000910B40002DE9F04180B90C469046002A00
:100250000FDD8F18084E094D306821462B689847EE
:100260000134BC42F8D14046BDE8F0814FF0FF3880
:10027000F9E78046F7E700BFD00B4020C80B4020CD
:100280000138022815D82DE9F0410E4614469AB1DE
:100290000D46DFF838800C4FD8F8000015F8011B28
:1002A0003B68984700280ADBA81B013CF4D1BDE855
:1002B000F0814FF0FF3070471046BDE8F0814FF0FD
:1002C000FF30BDE8F08100BFCC0B4020D00B4020B8
:1002D000F8B54FF400425B4B5A60BFF34F8FBFF34A
:1002E0006F8F594B0021C3F85012BFF34F8FBFF3EC
:1002F0006F8F5A6942F400325A61BFF34F8FBFF3D8
:100300006F8FC3F88410BFF34F8FD3F88070C7F39B
:100310004E35C7F3C9076E014FEA877C43F6E07E8E
:100320001C4606EA0E0062463B4640EA0201C4F85B
:100330006012013B02F14042B3F1FF3FF5D1013DB4
:10034000203EB5F1FF3FECD1BFF34F8F3E4B5A69D2
:1003500042F480325A61BFF34F8FBFF36F8F3B4A35
:100360003B495160A1F580715160BFF34F8FBFF3DE
:100370006F8FD3F8902222F00102C3F89022D3F8B5
:10038000942222F00102C3F89422BFF34F8FBFF3EF
:100390006F8F0A202F4CA0470B20A0470C20A047AE
:1003A0001020A0471120A0472B4B4FF480721A61F8
:1003B000C3F8A0201A63A3F580634FF400625A616A
:1003C000C3F8A0205A66C3F890205A651A62C3F891
:1003D0008420196F21F400611967596F21F40061BD
:1003E0005967C3F8C020C3F8D420C3F8B0204FF435
:1003F00000121A66C3F890205A655A62C3F880202A
:10040000196F21F400111967596F21F40011596710
:100410005A60124AD2F8143143F01003C2F8143172
:100420000F4B10221A66C3F890205A655A62C3F81F
:100430008020196F11431967596F114359675A602A
:10044000F8BD00BF50180E4000ED00E0000C0E405B
:100450000C08005A1107400000120E4000800840AE
:1004600000100E4001637047416370474264B1F170
:10047000C05F3AD013D8B1F1006F25D0B1F1805FE1
:100480000AD1036F13430367436F416F0B4023EAA5
:1004900002034367426070470029FBD17047B1F106
:1004A000205F21D009D8B1F1005FF3D1036F13436E
:1004B0000367436F13434367ECE7B1F1405F13D029
:1004C000B1F1605F10D0E5E710B4016F046FD34362
:1004D00021401C4619400167436F416F0B40234088
:1004E000436742605DF8044B7047036F016F0B4038
:1004F00023EA02030367436F13434367CAE710B459
:10050000019C41644CB901664BB101654AB9416334
:10051000016101605DF8044B70474166F4E7416595
:10052000F4E70163F4E7836B0B4214BF0120002062
:100530007047C06C7047806C704700002DE9F04137
:10054000044688460E4B9847054620460D4B984773
:10055000054013D00C4C04F1600603E0B4420DD00A
:1005600010345DB120684045F8D161682942F5D06A
:10057000E3689847636825EA0305EFE7BDE8F08183
:100580003305400037054000D409402008B50A2152
:100590000148024B984708BD000E0E403D05400043
:1005A00008B50B210148024B984708BD00100E40CA
:1005B0003D05400008B50C210148024B984708BD95
:1005C00000120E403D05400008B510210148024BC5
:1005D000984708BD00140E403D05400008B51121A4
:1005E0000148024B984708BD00160E403D054000EB
:1005F000032811D0042812D002280CBF4FF48071B8
:100600000021084A136B23F440730B431363936E6A
:1006100013F0080FFBD070474FF44071F1E74FF42F
:100620000071EEE700060E40174A136B23F07003CB
:1006300018431063936E13F0080F0AD14FF48053E0
:1006400011498A6E12F0080F03D1013BF9D1012044
:1006500070470D4A136B23F0030343F00203136347
:10066000936E13F0080F0AD14FF4805306498A6E37
:1006700012F0080F05D1013BF9D10120704700208D
:1006800070470020704700BF00060E40A0B90E481A
:10069000036A090289B20D4A1A400D4B13431943EC
:1006A00001620246936E13F0010FFBD0064A116AF5
:1006B000084B0B431362704703490B6A064A1A4002
:1006C000064B13430B62704700060E40FCFFC8FF49
:1006D0000100370000003701FCFFC8FE02003701AF
:1006E000024B986E00F48030704700BF00060E4049
:1006F0004FF00052014B9A62704700BF00060E4057
:10070000024B986E00F00200704700BF00060E40DA
:1007100000F07F00054BC3F80C01D3F80C2142F028
:100720001022C3F80C210020704700BF00060E40C5
:10073000284B99424BD8A3F57A5399422DD910B43E
:10074000254CA4FB0234A40B033C244B0B449B001C
:10075000B2FBF3F2033AFF2C1DD9002101316408EA
:10076000FF2C01D90629F9D9FF2A07D9062905D86E
:1007700001315208FF2A01D90629F9D913029BB287
:10078000090401F4E0210B43E4B223430361002098
:100790005DF8044B70470021E6E74900B2FBF1F237
:1007A000033AFF2A11D9002301335208FF2A01D945
:1007B000062BF9D9110289B21B0403F4E0230B4381
:1007C000D2B21A430261002070470023F2E70120F1
:1007D000704700BF801A0600F11976050012FD3F30
:1007E00008B54FF0FF328262026A80220260026B1B
:1007F0000822026020220260042202600A6849681E
:10080000034B9847012814BF0020012008BD00BFFA
:1008100031074000CB68002B4BD070B48C680026A9
:1008200046604A68120202F4407242F480520D7C23
:100830002D0405F4FE052A434260C6604D685DB193
:100840000A78012D02DD4E7846EA0222022D04DDEF
:10085000897841EA022200E00022C260012202609F
:1008600006E0012B19D0026B04F8012B013B18D0D4
:10087000026A12F4807F22D112F0020FF1D147F206
:100880003052016A11F4807F15D1013A15D011F070
:10089000020FE6D1002BF4D103E002230360036BC7
:1008A0002370036A13F0010FFBD0036A002070BCB1
:1008B0007047012070470520F9E70920F7E7052078
:1008C000F5E7CB68002B43D070B48C6800264660F7
:1008D0000A7C120402F4FE024D682D0205F44075F4
:1008E0002A434260C6604D685DB10A78012D02DD81
:1008F0004E7846EA0222022D04DD897841EA02227E
:1009000000E00022C26004E014F8012B4263013BC6
:100910000FD0026A12F4807F1ED112F0040FF3D1BF
:10092000026A12F4807F15D112F0040FECD1002B73
:10093000F6D1036A13F4807F11D113F0040FF8D0BD
:1009400002230360036A13F0010FFBD0002004E0D0
:1009500001207047052000E0052070BC704705208D
:10096000FBE7000000B587B0002306AA02F8153D9A
:100970000392012204928DF814108DF80430029332
:1009800001A9024B984707B05DF804FBC30840007B
:10099000436913F0020F02D0C161002070470120AB
:1009A0007047436913F0010F03D083690B70002077
:1009B00070470120704710B40B01934214D9C9004D
:1009C0004B0803EBC202B2FBF1F2D3085C1E4FF6F8
:1009D000FE718C4201D9012017E0416841F40021E9
:1009E00041600CE0012010E0590801EBC202B2FBAB
:1009F000F3F2D3085C1E4FF6FE718C42F2D812045B
:100A000002F4E0221A43026200205DF8044B7047B2
:100A1000084BC0F8E43000234360436283628823BC
:100A20000360242303604FF4807303604FF40023BA
:100A3000036070470041535570B505460C46164695
:100A40000F4B984700220F4B1A60A4B13246216821
:100A500028460D4B9847024678B96368A1680B4356
:100A600021690B43E1680B4306490B6069680B433E
:100A70006B60104670BD0122FBE70122F9E700BF61
:100A8000110A4000440A4020B70940004023036097
:100A90007047102303607047436913F0020F04D0BE
:100AA000C1F30801C161002070470120704743690C
:100AB00013F0010F05D08369C3F308030B60002016
:100AC000704701207047FEE700B583B0254B264AEA
:100AD0009A4210D0254B234A9A420CD2013B9B1AD2
:100AE00023F00303043313441F4951F8040B42F865
:100AF000040B9A42F9D11E4B1E4A9A420AD2013B7C
:100B00009B1A23F0030304331344002142F8041B0F
:100B10009342FBD1184A194B23F07F039360EFF304
:100B20001083B3FA83F35B09019372B6BFF35F8F4F
:100B30000022134B1A700199124A136843F4700390
:100B40001360BFF34F8FBFF36F8F29B101220C4B9E
:100B50001A70BFF35F8F62B60B4B98470B4B9847E9
:100B6000FEE700BF00004020248C4000B809402070
:100B70003C0C4020B809402000ED00E0000040009F
:100B80000000402088ED00E0D9324000292E4000CE
:100B90003B4B1B6B03F00303012B1DD083B1022BD6
:100BA00036D0374B1B6B03F07003702B5FD0344B88
:100BB0001A6B3449C2F302120B68D3400B607047C2
:100BC000314B5B6913F0800F14BF4FF400424FF4B8
:100BD000FA422C4B1A60E4E7294B1B6A13F0807F22
:100BE00003D02A4A274B1A60DBE7294A254B1A60B3
:100BF000234B1B6A03F07003102B05D0202BD0D1A0
:100C0000224A204B1A60CCE7224A1E4B1A60C8E7E2
:100C10001B4B1B6A13F0807F16D01C4A194B1A60BD
:100C2000174B1B6B03F00303022BBAD1144A916AD2
:100C3000926A1448C1F30A41036801FB0333D2B23C
:100C4000B3FBF2F30360ACE7114A0E4B1A600C4B96
:100C50001B6A03F07003102B05D0202BE0D10B4A48
:100C6000084B1A60DCE70B4A064B1A60D8E7054AC6
:100C700013680949A1FB03135B081360704700BFA9
:100C800000060E400400402010180E40001BB70064
:100C900000093D0000127A00ABAAAAAA164B98429E
:100CA00013D9164B984215D9154B984216D9154BA6
:100CB000984217D9144B984218D9144B984294BFB4
:100CC000134A144A144B1A6070474FF08062124B5B
:100CD0001A607047114A104B1A607047104A0E4B49
:100CE0001A6070470F4A0C4B1A6070474FF004228D
:100CF000094B1A60704700BFBFF35E017FE7BD027A
:100D00003FDB1C04FFCE7B05BFC2DA067FB6390885
:100D10000005000400060004000C0E400001000461
:100D200000020004000300040A4B1B6853B1094B86
:100D30001B681A180849914208DB1046054A1060E2
:100D400018467047054A034B1A60F0E74FF0FF3032
:100D5000704700BF480A4020FCFF4520402E40203D
:100D60004FF0FF3070474FF400534B600020704746
:100D7000012070470020704700F1080343604FF0E6
:100D8000FF328260C3600361002303607047002369
:100D90000361704743684B609A688A609A68516043
:100DA00099600861036801330360704730B40D68CF
:100DB000B5F1FF3F02D000F1080202E0026904E051
:100DC0001A4653681C68A542FAD253684B60996072
:100DD0008A605160086103680133036030BC70476A
:100DE00003694268816891608268416851605A680D
:100DF000904206D0002202611A68013A1A6018680F
:100E0000704782685A60F5E782B0002301930F4B68
:100E10001B68B3F1FF3F0AD04FF0800372B683F333
:100E20001188BFF36F8FBFF34F8F62B6FEE74FF0AD
:100E3000800372B683F31188BFF36F8FBFF34F8FB8
:100E400062B6019B002BFCD002B070470800402026
:100E500008480068006880F308884FF0000080F3BD
:100E6000148862B661B6BFF34F8FBFF36F8F00DF98
:100E700000BF000008ED00E0DFF80C00016841F45D
:100E8000700101607047000088ED00E04FF0807352
:100E900040F8043C21F0010140F8081C054B40F8E3
:100EA0000C3C40F8202C6FF0020340F8243C4438FE
:100EB000704700BF090E4000000000000000000065
:100EC000074B19680868B0E8F04F80F30988BFF352
:100ED0006F8F4FF0000080F311887047AFF30080F0
:100EE000540A40204FF0800372B683F31188BFF399
:100EF0006F8FBFF34F8F62B60B4A136801331360D5
:100F0000012B0FD1094B1B6813F0FF0F0AD04FF0D4
:100F1000800372B683F31188BFF36F8FBFF34F8FD7
:100F200062B6FEE7704700BF0800402004ED00E015
:100F30000A4B1B6853B94FF0800372B683F31188D4
:100F4000BFF36F8FBFF34F8F62B6FEE7013B034ADB
:100F500013600BB983F31188704700BF080040206D
:100F6000EFF30980BFF36F8F154B1A681EF0100F57
:100F700008BF20ED108A20E9F04F10602DE909002C
:100F80004FF0800072B680F31188BFF34F8FBFF32C
:100F90006F8F62B601F082F84FF0000080F3118885
:100FA00009BC19680868B0E8F04F1EF0100F08BFC0
:100FB000B0EC108A80F30988BFF36F8F704700BFD1
:100FC000540A402008B54FF0800372B683F31188AD
:100FD000BFF36F8FBFF34F8F62B6054B984718B1C1
:100FE0004FF08052034B1A60002383F3118808BD31
:100FF000E11D400004ED00E0054B00221A600549A8
:101000000A600549054A116007221A60704700BF4F
:1010100010E000E018E000E0BF27090014E000E065
:1010200010B582B02E4B1A78D2B20192FF221A70FC
:101030001B78DBB28DF803309DF8033003F080039A
:10104000284A13700722284B1A609DF8033013F0CA
:10105000800F12D0062300E00B469DF803205200BB
:10106000D2B28DF803209DF80320591E12F0800F94
:10107000F2D11D4A1360042B0AD04FF0800372B6E0
:1010800083F31188BFF36F8FBFF34F8F62B6FEE714
:101090001B0203F4E063144A1360019BDBB2104AA5
:1010A0001370124B1A6842F460021A601A6842F018
:1010B00060421A600E4B984700240E4B1C600E4B8A
:1010C00098470E4A136843F0404313600C4B98470F
:1010D0000C4B98470C4B9847204602B010BD00BF00
:1010E00000E400E04C0A4020500A402020ED00E0DF
:1010F000F90F400008004020790E400034EF00E076
:10110000510E40009D204000090E4000EFF3058382
:101110000F2B11D9124A9B5CDBB2124A12789A4209
:101120000AD94FF0800372B683F31188BFF36F8F33
:10113000BFF34F8F62B6FEE70B4B1B6803F4E0630F
:101140000A4A126893420AD94FF0800372B683F3B9
:101150001188BFF36F8FBFF34F8F62B6FEE7704702
:10116000F0E300E04C0A40200CED00E0500A402083
:1011700010B50446064B98472046064B9847044650
:10118000054B98470CB1204610BD044B9847FAE731
:10119000C51D400029334000291F4000352A40006A
:1011A00048B110B50446044B98472046034B984776
:1011B000034B984710BD7047C51D400039334000B0
:1011C000291F400010B50446044B9847A46B044BFC
:1011D0009847B4FA84F0400910BD00BFE50E400006
:1011E000310F400070B504461646856B026C52B94B
:1011F0000368002B2AD14068174B9847002363608F
:101200000135A56370BD6EB98068144B9847A3681B
:10121000226C1344A3606268934219D32368A360CD
:101220000020EDE7C0680D4B9847236C5B42E268F5
:101230001A44E26021688A4202D262681344E36081
:1012400045B1022E06D1013D0020D9E70020D7E7A5
:101250000020D5E70020D3E761234000A9384000F3
:1012600070B582B00190846C74B1A26BE36B9A424A
:1012700015D34FF0800372B683F31188BFF36F8FDD
:10128000BFF34F8F62B6FEE74FF0800372B683F371
:101290001188BFF36F8FBFF34F8F62B6FEE7A26B6B
:1012A000934203D80026304602B070BD0A4694F837
:1012B00045506DB201A920460A4B98470646B5F144
:1012C000FF3F0AD1636A002BEDD004F12400064BE6
:1012D0009847002818BF0126E5E76B1C5BB284F82D
:1012E0004530E0E7E5114000F1214000026C72B1A9
:1012F00010B50346C4681444C4604068844201D3F6
:101300001868D8600846D968014B984710BD7047E7
:10131000A93840002DE9F0410546234B984795F840
:10132000454064B2002C19DD204EDFF88C80204F40
:1013300008E06B6A93B105F12400B84760B9013C3D
:1013400064B25CB1AB6C002BF3D000212846B047EF
:101350000028F4D0C047F2E7C047F0E7FF2385F844
:101360004530144B9847104B984795F8444064B269
:10137000002C12DD2B6983B105F110070C4EDFF84C
:10138000388004E0013C64B23CB12B692BB1384693
:10139000B0470028F6D0C047F4E7FF2385F8443073
:1013A000044B9847BDE8F081E50E40006112400013
:1013B000F1214000310F40003523400038B530B3F3
:1013C00004460D461D4B98472268216CE36B03FBD6
:1013D00001F3D01860600020A063A2605B1A134480
:1013E000E360FF2384F8443084F84530D5B923699D
:1013F000FBB104F11000124B9847D0B14FF080526E
:10140000104B1A60BFF34F8FBFF36F8F11E04FF097
:10141000800372B683F31188BFF36F8FBFF34F8FD2
:1014200062B6FEE704F11000074DA84704F124005E
:10143000A847064B9847012038BD00BFE50E400085
:10144000F121400004ED00E0790D4000310F400033
:10145000F8B550B94FF0800372B683F31188BFF32B
:101460006F8FBFF34F8F62B6FEE7064617460D46F5
:1014700001FB00F054300B4B9847044678B11DB186
:1014800000F15403036000E02060E663256401215D
:101490002046054B984784F850700023A3642046EB
:1014A000F8BD00BF71114000BD1340002DE9F04FA1
:1014B00085B00192B8B1044601B3022B2CD01E4670
:1014C0000F46694B9847002834D1019B002B39D037
:1014D0004FF0800372B683F31188BFF36F8FBFF3B1
:1014E0004F8F62B6FEE74FF0800372B683F3118828
:1014F000BFF36F8FBFF34F8F62B6FEE7026C002A17
:10150000DBD04FF0800372B683F31188BFF36F8F87
:10151000BFF34F8F62B6FEE7E26B012ACFD04FF0E8
:10152000800372B683F31188BFF36F8FBFF34F8FC1
:1015300062B6FEE70025DFF85C81DFF85CA1DFF82A
:10154000349141E00025F6E7324639462046474BC4
:101550009847A36C93B131462046454B984738B124
:101560004FF08052434B1A60BFF34F8FBFF36F8F22
:10157000414B9847012005B0BDE8F08F636A73B115
:1015800004F124003D4B98470028F1D04FF08052E1
:10159000384B1A60BFF34F8FBFF36F8FE8E7002817
:1015A000E6D04FF08052334B1A60BFF34F8FBFF33A
:1015B0006F8FDDE7304B98470020DCE72046304B4B
:1015C0009847304B98470125C047A26BE36B9A427E
:1015D000BAD3022EB8D0019B002BEBD00DB902A8D4
:1015E000D047254B9847284B9847C04794F844303C
:1015F0005BB2B3F1FF3F02D1002384F8443094F88A
:1016000045305BB2B3F1FF3F02D1002384F845308F
:10161000194B984701A902A81C4B9847E0B9C0474D
:10162000D4F838B0E56B144B9847AB45C6D1019957
:1016300004F11000164B98472046114B9847114B68
:1016400098470028BFD14FF08053C9F80030BFF34E
:101650004F8FBFF36F8FB6E72046094B9847094B72
:101660009847002087E700BF41234000E511400074
:101670006112400004ED00E0310F4000F121400014
:1016800015134000291F4000C51D4000A122400045
:101690006D214000E50E4000892240002DE9F8430D
:1016A000002839D00446002941D0022B4DD01F46D6
:1016B000904689463A4B9847EFF311864FF08003E6
:1016C00072B683F31188BFF36F8FBFF34F8F62B68B
:1016D000A26BE36B9A4201D3022F58D194F8455084
:1016E0006DB23A46494620462E4B9847B5F1FF3F2A
:1016F00047D1A36C002B36D0394620462A4B984759
:10170000B8F1000F45D0002843D00120C8F80000F0
:1017100086F31188BDE8F8834FF0800372B683F337
:101720001188BFF36F8FBFF34F8F62B6FEE7006C77
:101730000028BAD04FF0800372B683F31188BFF34C
:101740006F8FBFF34F8F62B6FEE7E06B0128AED01C
:101750004FF0800372B683F31188BFF36F8FBFF32E
:101760004F8F62B6FEE7636AABB104F124000F4B02
:101770009847B8F1000F10D078B10120C8F80000E8
:10178000C6E76B1C5BB284F845300120C0E700203F
:10179000BEE70120BCE70120BAE70120B8E700BF9F
:1017A0000D114000E511400061124000F1214000A0
:1017B0002DE9F04784B0019290B10446D9B10E46AC
:1017C000544B984728BB019B5BB34FF0800372B624
:1017D00083F31188BFF36F8FBFF34F8F62B6FEE7BD
:1017E0004FF0800372B683F31188BFF36F8FBFF39E
:1017F0004F8F62B6FEE7036C002BE0D04FF0800302
:1018000072B683F31188BFF36F8FBFF34F8F62B649
:10181000FEE70027DFF82881DFF828A1DFF8009134
:1018200031E00027F6E7314620463B4B9847013D23
:10183000A563236963B104F11000384B984738B1B0
:101840004FF08052364B1A60BFF34F8FBFF36F8F4C
:10185000344B9847012004B0BDE8F087314B9847DE
:101860000020F8E702A8D04716E0002384F84430AF
:101870001DE0002384F845301FE020462A4B98479E
:101880002A4B98470127C047A56B002DCBD1019B60
:10189000002BE3D0002FE5D0224B9847244B9847EC
:1018A000C04794F844305BB2B3F1FF3FDDD094F809
:1018B00045305BB2B3F1FF3FDBD01A4B984701A92B
:1018C00002A81C4B9847C8B920461B4B98470028D4
:1018D000D3D0019904F12400184B98472046124BAD
:1018E0009847124B98470028CCD14FF08053C9F845
:1018F0000030BFF34F8FBFF36F8FC3E720460A4B13
:1019000098470A4B984720460B4B98470028B9D078
:101910000020A0E741234000ED124000F1214000EB
:1019200004ED00E0310F400015134000291F400076
:10193000C51D4000A1224000C51140006D2140009E
:10194000E50E40008922400010B40B4B1B6853B1D8
:101950000123094C54F8332032B10133082BF9D15B
:101960005DF8044B70470023034A42F8331002EB42
:10197000C3035860F4E700BFD40B402070B50446A1
:101980000D461646124B984794F844305BB2B3F1BB
:10199000FF3F0DD094F845305BB2B3F1FF3F0BD061
:1019A0000C4B9847A36B5BB120460B4B984770BD1F
:1019B000002384F84430EDE7002384F84530EFE756
:1019C0003246294604F12400044B9847ECE700BF57
:1019D000E50E4000310F400015134000A9214000E2
:1019E000084B1B681B683BB1064B1B68DB68DB6858
:1019F0005A68054B1A6070474FF0FF32024B1A606D
:101A0000704700BF580A4020080B402070B50446BC
:101A10000E461C4B1D681C4B186804301B4B984726
:101A200048B9194B1A681A490B68D06A01228240DA
:101A300023EA02030B60B4F1FF3F00D19EB92C44AE
:101A4000114B1B685C60A54214D8124B18680E4BF2
:101A500019680431104B9847104B1B689C4201D207
:101A60000E4B1C6070BD084B196804310C480D4BBF
:101A7000984770BD0C4B1868034B19680431064B2E
:101A8000984770BD500B4020540A4020E10D4000A3
:101A9000D80A4020580A4020AD0D4000080B4020D5
:101AA000280B4020950D40005C0A402080B5184D61
:101AB000DFF87880DFF8789001E0164B98472B68C4
:101AC000C3B1154F154EC047FB68DC68201DB047F9
:101AD000134A1368013B13602B68013B2B60114BC9
:101AE0009847206BDFF84CA0D0472046D0472B68A2
:101AF000002BE8D10C4B1B68012BDED94FF0805333
:101B0000C9F80030BFF34F8FBFF36F8FD5E700BF29
:101B1000C80A4020312A40003C0B4020E10D400023
:101B2000C40A4020310F4000600A4020E50E40000A
:101B300004ED00E0A11140002DE9F04F83B0834691
:101B40000D460193DDF834A096003046604B98476F
:101B5000002800F08D80074658205D4B98470446CA
:101B6000002800F0828007633246A5213846594B91
:101B70009847043E236B1E4426F007062B7884F812
:101B800034302B7863B12B4604F1340205F109019E
:101B9000587802F8010F13F8010F08B18B42F7D102
:101BA000002784F83D700C9D042D28BF0425E562B4
:101BB000A564E76404F104084046DFF86C91C84767
:101BC00004F11800C8472461C5F10505A5616462E8
:101BD000276584F85470019A594630463E4B984721
:101BE0002060BAF1000F01D0CAF800403B4B984783
:101BF0003B4A1368013313603A4B1B68002B3AD001
:101C0000394B1B683BB9374B1B68DA6AE36A9A4267
:101C100001D8344B1C60354A1368013313602364C8
:101C2000E06A334A1168012383400B43136000EBE1
:101C3000800041462F4B03EB80002F4B98472F4BE2
:101C40009847294B1B68002B3BD0264B1B68DA6A50
:101C5000E36A9A4239D24FF08052294B1A60BFF39F
:101C60004F8FBFF36F8F01202CE03846254B9847EC
:101C70004FF0FF3026E01B4B1C601368012BCAD1CC
:101C80001C4E3046204DA84706F11400A84706F127
:101C90002800A84706F13C00A84706F15000A847D5
:101CA0001A4F3846A8471A4E3046A8471948A84741
:101CB0001948A8471948A847194B1F60194B1E60BF
:101CC000A9E7012003B0BDE8F08F0120FAE700BFCB
:101CD00071114000DD3940008D0E4000E50E4000DE
:101CE000C40A4020540A4020240B4020D40A40203B
:101CF000D80A4020600A4020950D4000310F400076
:101D000004ED00E0A1114000790D4000DC0A402004
:101D1000F00A4020100B40203C0B4020280B4020B4
:101D2000580A40205C0A40208F0D400010B582B058
:101D30001B4B0193002300934FF4006219491A488A
:101D40001A4CA047012804D0B0F1FF3F1CD002B0CC
:101D500010BD174B98470128F6D14FF0800372B69B
:101D600083F31188BFF36F8FBFF34F8F62B64FF0CD
:101D7000FF32104B1A6001220F4B1A6000220F4BEA
:101D80001A600F4B9847E2E74FF0800372B683F377
:101D90001188BFF36F8FBFF34F8F62B6FEE700BFAE
:101DA000040B402090874000AD1A4000391B4000D2
:101DB000D9244000080B4020240B4020500B402029
:101DC00021104000024A136801331360704700BFBE
:101DD000D00A4020014B1868704700BF500B4020CC
:101DE0002DE9F047414B1B68002B77D1404B1D6814
:101DF00001351D60D5B93F4B1B681B6853B14FF0CF
:101E0000800372B683F31188BFF36F8FBFF34F8FD8
:101E100062B6FEE7374A1168374B186810601960E0
:101E2000364A136801331360354B9847354B1B68AE
:101E30009D4218D20024344B1B68DB6A03EB8303FA
:101E40009B00324AD358022B28BF0124304B1B6819
:101E50000BB9304B9847304B1B68002B0CBF20460A
:101E60000120BDE8F0870024DFF88890DFF8B48017
:101E70002A4F1FE04FF0FF32224B1A60DBE7214A66
:101E80001360D8E706F11800C047F06A3A680123EA
:101E9000834013433B6000EB800051461B4B03EB38
:101EA00080001F4B9847184B1B68F26ADB6A9A4206
:101EB00028BF0124D9F800301B68002BDAD0D9F8EC
:101EC0000030DB68DE6873689D42D8D306F1040AEF
:101ED0005046C047B36A002BD4D1D6E70C4A1368EA
:101EE000013313600B4B98470024B4E7D00A40201D
:101EF000500B4020580A40205C0A40200C0B402028
:101F0000E1194000080B4020540A4020600A40209C
:101F1000CC0A4020332A4000540B4020D80A4020ED
:101F2000950D4000E10D4000364B1B6853B94FF052
:101F3000800372B683F31188BFF36F8FBFF34F8FA7
:101F400062B6FEE72DE9F0412F4B98472D4B1A68FA
:101F5000013A1A601B68002B50D12C4B1B682BB91F
:101F600000242B4B98472046BDE8F0810024294FE0
:101F7000294E2A4D3B6803B3FB68DC6804F1180066
:101F8000B04704F104084046B047E06A2A680123DC
:101F9000834013432B6000EB80004146204B03EB52
:101FA0008000204B9847204B1B68E26ADB6A9A420C
:101FB000E0D301221D4B1A60DCE70CB11C4B9847A3
:101FC0001C4B1C686CB11C4F184E012501E0013CF4
:101FD00004D0B8470028FAD03560F8E70022154B46
:101FE0001A60124B1B685BB14FF08052134B1A60A2
:101FF000BFF34F8FBFF36F8F0124B2E70024B0E728
:102000000024AEE7D00A4020E50E4000C40A40207C
:10201000310F4000100B4020E10D4000D80A402055
:10202000600A4020950D4000540A4020540B402087
:10203000E1194000CC0A4020E11D400004ED00E021
:1020400010B5B8B10446104B1B6853B14FF0800374
:1020500072B683F31188BFF36F8FBFF34F8F62B6F1
:10206000FEE70A4B984700212046094B9847094B49
:10207000984738B94FF08052074B1A60BFF34F8F23
:10208000BFF36F8F10BD00BFD00A4020C51D4000B8
:102090000D1A4000291F400004ED00E02D4B1B6885
:1020A000002B2CD110B500222B4B1A602B4B1B6838
:1020B0001B6B1A68B2F1A53F03D15A68B2F1A53F74
:1020C00021D0264B186819683431254B9847254B89
:1020D0001B68B3FA83F3DBB2C3F11F0303EB830284
:1020E000920021498A58BAB94FF0800372B683F33F
:1020F0001188BFF36F8FBFF34F8F62B6FEE70122E7
:10210000154B1A6070479A68B2F1A53FD9D1DB68C8
:10211000B3F1A53FD5D1DAE7134A9900C81802EB0D
:10212000800044686468446019440246083294425E
:1021300009D003EB83030C4A02EB83035B68DA6884
:10214000064B1A6010BD6068074A02EB81025060BE
:10215000EFE700BFD00A4020540B4020540A402033
:10216000192A4000D80A4020600A402050B94FF098
:10217000800372B683F31188BFF36F8FBFF34F8F65
:1021800062B6FEE710B50C46044B19681831044BD3
:10219000984701212046034B984710BD540A402020
:1021A000AD0D40000D1A400038B578B114460D460B
:1021B0000C4B196818310C4B9847002C21460CBF6A
:1021C00028464FF0FF30094B984738BD4FF0800349
:1021D00072B683F31188BFF36F8FBFF34F8F62B670
:1021E000FEE700BF540A4020950D40000D1A400044
:1021F00038B5C368DC6824B304F1180528461A4BC7
:1022000098471A4B1B683BBB251D2846164B984721
:10221000E06A174A1168012383400B43136000EB07
:1022200080002946134B03EB8000134B9847134B58
:102230001B68E26ADB6A9A4213D90120104B1860CE
:1022400038BD4FF0800372B683F31188BFF36F8FF0
:10225000BFF34F8F62B6FEE729460A48064B984700
:10226000E5E7002038BD00BFE10D4000D00A402066
:10227000D80A4020600A4020950D4000540A4020B2
:10228000540B4020100B4020034B1B680360034B92
:102290001B684360704700BF0C0B4020500B402070
:1022A000A8B170B50546E9B10C461D4B98471D4BCA
:1022B0001A6869682368B3F1FF3F2FD01A48006895
:1022C0002E68864219D08A4217D301241BE04FF0B2
:1022D000800372B683F31188BFF36F8FBFF34F8F04
:1022E00062B6FEE74FF0800372B683F31188BFF346
:1022F0006F8FBFF34F8F62B6FEE7521A9A4206D332
:10230000002323600124094B9847204670BD9B1A87
:1023100023602846064B98470024F4E70024F2E7A0
:10232000E50E4000500B40200C0B4020310F4000C8
:10233000892240000122014B1A607047540B402053
:10234000054B1B6833B1054B1B68002B0CBF0220EB
:102350000020704701207047240B4020D00A402005
:1023600000284DD038B50446274A126890420AD05A
:102370004FF0800372B683F31188BFF36F8FBFF302
:102380004F8F62B6FEE7C26C52B94FF0800372B64F
:1023900083F31188BFF36F8FBFF34F8F62B6FEE7F1
:1023A000013AC264C06AA16C88422BD052BB251D81
:1023B0002846164B984768B9E16A01EB81039B00F8
:1023C000134AD35833B91348036801228A4023EAD9
:1023D00002030360A06CE062C0F10503A3610D4A33
:1023E0001168012404FA00F30B43136000EB800032
:1023F0002946074B03EB8000074B9847204638BD22
:1024000000207047002038BD540A4020E10D4000F4
:10241000600A4020D80A4020950D400008B5416070
:10242000006191420CD8D21A83699A4201D30120EB
:1024300008BD011D094B1868094B9847002008BDCD
:102440009A4203D2994201D3012008BD011D054BD8
:102450001868034B9847002008BD00BF5C0B402064
:10246000AD0D4000580B402070B5104B9847104BF5
:102470001B6813B10F4B984770BD0F4D28460F4E88
:10248000B0470F4C2046B0470E4B1D600E4B1C60F2
:102490000022102105200D4B9847054B186000289D
:1024A000E8D00B490B4B9847E4E700BFE50E40002E
:1024B0008C0B4020310F4000600B4020790D400014
:1024C000740B4020580B40205C0B402051144000FE
:1024D000988740004919400010B582B00E4B9847CC
:1024E0000E4B1B686BB10E4B01930423009300232A
:1024F0004FF480520B490C480C4CA04708B102B075
:1025000010BD4FF0800372B683F31188BFF36F8F55
:10251000BFF34F8F62B6FEE7692440008C0B40206A
:10252000900B4020A087400059264000391B4000F6
:10253000D8B130B585B015460446154A106820B3A9
:102540001A46009101950294052919DC114B984710
:1025500002284FF000030CBF089A1A4669460C483F
:1025600000680D4CA04705B030BD4FF0800372B637
:1025700083F31188BFF36F8FBFF34F8F62B6FEE70F
:1025800000236946054CA047EDE70020EBE700BFBC
:102590008C0B402041234000AD1440009D164000AC
:1025A0002DE9F04782B08046244B98470746244BDC
:1025B0001B6898421BD30023C8F80030204B1F60D3
:1025C000384602B0BDE8F087002100910B46524624
:1025D00020461C4CA04760B94FF0800372B683F3CD
:1025E0001188BFF36F8FBFF34F8F62B6FEE7164DB2
:1025F000164E2B681A68C2B1DB68D3F800A0DC68FD
:1026000004F104094846B047636A20469847E369E5
:10261000012BEED1A36953449A45D5D2636024615E
:10262000494628680A4B9847E3E70A4A1068064972
:10263000086013600123C8F80030BFE7D51D4000D3
:10264000880B402031254000580B4020E10D400010
:10265000AD0D40005C0B40202DE9F04788B0754E71
:10266000754FDFF8FC91DFF8FC8133681A68002AA7
:1026700000F0CE80DB681C68B84704A86F4B984711
:102680000546049B002B44D1A04212D20022611BBC
:102690006B4B18686B4B98476B4B984700283AD1A7
:1026A0004FF08053C9F80030BFF34F8FBFF36F8FE7
:1026B00031E0654B98473368DB68D3F80CA00AF12A
:1026C0000400C047DAF81C30012B04D0DAF82430BB
:1026D000504698471FE0DAF8181023462A4621444E
:1026E00050465A4DA8470028F0D0002100910B46D3
:1026F00022465046564CA0470028E7D14FF08003B1
:1027000072B683F31188BFF36F8FBFF34F8F62B63A
:10271000FEE74D4B98474A4D4E4C06E00799069808
:10272000059B9847049B002B08DA002204A928681F
:10273000A047002899D0049B002BEFDBDDF818A000
:10274000DAF8143013B10AF10400C04703A83B4B78
:102750009847049B092BE8D801A252F823F000BF48
:102760008927400089274000892740002B27400007
:10277000DD274000092840008927400089274000C4
:102780002B274000DD274000059CDAF8181023466F
:102790000246214450462D4CA0470028BCD0DAF810
:1027A000243050469847DAF81C30012BB4D1DAF8BF
:1027B0001820002100910B46059802445046244CF5
:1027C000A0470028A8D14FF0800372B683F3118888
:1027D000BFF36F8FBFF34F8F62B6FEE70599CAF85C
:1027E000181031B10346024601445046174CA04729
:1027F00092E74FF0800372B683F31188BFF36F8FB7
:10280000BFF34F8F62B6FEE75046134B984783E7FE
:10281000B84704A8094B98470546049B002B7FF452
:1028200078AF0E4B1B681A68B2FA82F25209002484
:102830002DE700BF580B4020C51D4000A1254000DA
:102840008C0B40207D194000291F40001D244000B2
:1028500031254000B1174000A11140005C0B402021
:1028600004ED00E0E10D4000F0B583B005460C46F4
:10287000002301932A4B984213D02A4B984218D038
:10288000294B98421DD0294B9D4222D0284B9D4276
:1028900027D0284B9D422ED0274B9D4235D003B0E8
:1028A000F0BD1F46254E21463846B0470028FAD1D4
:1028B000E9E71F46214E21463846B0470028FAD1A5
:1028C000E4E71F461D4E21463846B0470028FAD19E
:1028D000DFE71F46194E21463846B0470028FAD197
:1028E000DAE71E46164D01A93046A8470028FAD15E
:1028F000019B2370D3E71E46114D01A93046A8471E
:102900000028FAD1019B2370C9E71E460C4D01A98E
:102910003046A8470028FAD1019B2370BFE700BFCB
:1029200000080E40000A0E40001A0E40001C0E4027
:10293000004002400080024000C00240A309400065
:10294000AF0A400070B50C462A4B984213D02A4B70
:10295000984219D0294B98421FD0294B984225D034
:10296000284B98422BD0284B984231D0274B984285
:1029700037D0002070BD1E46254D21463046A84761
:102980000028FAD1012070BD1E46214D2146304657
:10299000A8470028FAD1012070BD1E461C4D2146D3
:1029A0003046A8470028FAD1012070BD1E46184DB8
:1029B00021463046A8470028FAD1012070BD1E46A6
:1029C000144D21463046A8470028FAD1012070BD99
:1029D0001E46104D21463046A8470028FAD1012056
:1029E00070BD1E460B4D21463046A8470028FAD13F
:1029F000012070BD00080E40000A0E40001A0E4073
:102A0000001C0E40004002400080024000C0024016
:102A100091094000990A400008B50A46014602485B
:102A2000024B9847FEE700BF54894000913A4000AE
:102A3000704770474FF0800372B683F31188BFF37D
:102A40006F8FBFF34F8F62B6FEE7000038B50446C4
:102A50000D46064B984720B929462046044B984717
:102A600038BD29462046034B984738BD270540000E
:102A7000650440006904400030B585B029200E4C43
:102A8000A0470E4B019349F64043029301A90C481D
:102A90000C4B98471020A0470B4D4FF080524FF041
:102AA000C0512846094CA0474FF000624FF0C0517A
:102AB0002846A04705B030BD1107400000A3E11132
:102AC00000000640E107400000140E406D04400085
:102AD00000B587B08DF814008DF804100121029123
:102AE0000392049301A90348034B984740B207B0EF
:102AF0005DF804FB00000640C308400000B587B045
:102B00008DF814008DF804100121029103920493B2
:102B100001A90348034B984740B207B05DF804FB96
:102B200000000640150840002DE9F04F2DED048B04
:102B300093B0934B984768219248934B9847C0B203
:102B4000002800F009819148914B984701230FAA72
:102B5000752168208F4CA047002840F001819DF826
:102B60003C1068290CBF8C488C488D4B984701233A
:102B700012AA02F8183D6B2168208A4CA047002851
:102B800040F0F28012AA002302F8183D01231C2114
:102B90006820844CA047002840F0EA8012AA002355
:102BA00002F8183D01231B2168207E4CA047002815
:102BB00040F0E280774D9FED7C9ADFED7C8A012327
:102BC0000DF12F023B216820A84701230BAA3C21CD
:102BD0006820A84701230DF12E023D216820A84757
:102BE00001230DF12B0240216820A84701230DF19C
:102BF0002D023F216820A84701230DF12A02402120
:102C00006820A8479DF82F209DF82C3043EA022326
:102C10001EB29DF82E209DF82B3043EA02230FFAB6
:102C200083FB9DF82D209DF82A3043EA02231BB236
:102C300008EE103A01230DF1290243216820A8472C
:102C400001230DF1260244216820A84701230AAA86
:102C500045216820A84701230DF12502482168205D
:102C6000A84701230DF1270247216820A847012327
:102C700009AA48216820A8479DF829905FFA89F998
:102C80009DF826805FFA88F89DF82870FFB29DF8BD
:102C90002530DBB205939DF827A05FFA8AFA9DF8EC
:102CA0002440E4B207EE906AF8EEE77A404E67EE11
:102CB000897A17EE900AB047CDE90601B8EEC88AC6
:102CC00068EE097A17EE900AB047CDE9020107EEE7
:102CD00090BAF8EEE77A67EE897A17EE900AB04775
:102CE000CDE90001DDE906233248DFF8B4B0D8476A
:102CF00048EA09280FFA88F807EE908AF8EEE77A92
:102D000087EEA87A17EE100AB0478046894644EA53
:102D10000A2424B207EE904AF8EEE77A87EEA87A02
:102D200017EE100AB047CDE90201059B43EA0727D9
:102D30003FB207EE907AF8EEE77A87EEA87A17EEC0
:102D4000100AB047CDE9000142464B461A48D84721
:102D500001201A4B984732E719480D4B9847F5E682
:102D600018480B4B984702E71748094B984709E763
:102D70001548074B984711E71348054B984719E743
:102D8000792A400000000640650940005088400054
:102D9000553B4000FD2A400098884000C088400014
:102DA000913A4000D12A40000000803800000343DF
:102DB00031324000FC88400028894000412040001A
:102DC0006888400080884000E488400010B582B0E8
:102DD00004460C20054B98470023009322464FF4ED
:102DE00080710348034CA04702B010BD110740009A
:102DF00000120E40FF04400008B50120064B984722
:102E0000064E074D074C4FF480713046A8474FF4EB
:102E10007A70A047F7E700BFCD2D400000120E40AA
:102E20004D2A40004120400070B588B02F4B984794
:102E30002F4B98472F4D304B1D60304A304B1A6056
:102E4000304A314B1A604FF4E1330293C0230393AD
:102E50004FF4006304930024059406940E202B4B3A
:102E600098472B4A02A928462A4B984728462A4BBE
:102E700098472846294B9847294E33682146986839
:102E8000284DA847336821465868A847336821462B
:102E90009868A8472448254DA84725492548A847AC
:102EA000254A26492648A8470194009423464FF412
:102EB000807224492448254CA047012802D0244888
:102EC000244B98470023019300934FF480722249CA
:102ED00022481E4CA047012802D021481D4B98478C
:102EE000204B9847002008B070BD00BFD5014000BE
:102EF000D102400000800240D00B40204529400014
:102F0000CC0B402069284000C80B4020110740002E
:102F100080D1F008390A40008D0A4000930A400031
:102F20000C004020893B4000A8874000913A4000B7
:102F3000C4874000D0874000D8874000E487400025
:102F4000F087400008884000F92D4000391B400000
:102F50000C884000553B40002C884000292B400045
:102F6000308840002D1D400081F0004102E000BF8C
:102F700083F0004330B54FEA41044FEA430594EA39
:102F8000050F08BF90EA020F1FBF54EA000C55EA74
:102F9000020C7FEA645C7FEA655C00F0E2804FEA45
:102FA0005454D4EB5555B8BF6D420CDD2C4480EA27
:102FB000020281EA030382EA000083EA010180EA57
:102FC000020281EA0303362D88BF30BD11F0004FA5
:102FD0004FEA01314FF4801C4CEA113102D04042DB
:102FE00061EB410113F0004F4FEA03334CEA133316
:102FF00002D0524263EB430394EA050F00F0A7802E
:10300000A4F10104D5F1200E0DDB02FA0EFC22FA28
:1030100005F2801841F1000103FA0EF2801843FA1C
:1030200005F359410EE0A5F120050EF1200E012A0D
:1030300003FA0EFC28BF4CF0020C43FA05F3C0184B
:1030400051EBE37101F0004507D54FF0000EDCF1C4
:10305000000C7EEB00006EEB0101B1F5801F1BD36D
:10306000B1F5001F0CD349085FEA30004FEA3C0C71
:1030700004F101044FEA445212F5800F80F09A8067
:10308000BCF1004F08BF5FEA500C50F1000041EB6B
:10309000045141EA050130BD5FEA4C0C404141EB6F
:1030A000010111F4801FA4F10104E9D191F0000F96
:1030B00004BF01460020B1FA81F308BF2033A3F119
:1030C0000B03B3F120020CDA0C3208DD02F1140C10
:1030D000C2F10C0201FA0CF021FA02F10CE002F14B
:1030E0001402D8BFC2F1200C01FA02F120FA0CFC44
:1030F000DCBF41EA0C019040E41AA2BF01EB04518D
:10310000294330BD6FEA04041F3C1CDA0C340EDC8A
:1031100004F11404C4F1200220FA04F001FA02F3CD
:1031200040EA030021FA04F345EA030130BDC4F18B
:103130000C04C4F1200220FA02F001FA04F340EA80
:103140000300294630BD21FA04F0294630BD94F031
:10315000000F83F4801306BF81F480110134013D18
:103160004EE77FEA645C18BF7FEA655C29D094EA89
:10317000050F08BF90EA020F05D054EA000C04BF07
:103180001946104630BD91EA030F1EBF00210020F2
:1031900030BD5FEA545C05D14000494128BF41F091
:1031A000004130BD14F580043CBF01F5801130BDF5
:1031B00001F0004545F0FE4141F470014FF0000080
:1031C00030BD7FEA645C1ABF194610467FEA655C31
:1031D0001CBF0B46024650EA013406BF52EA0335D3
:1031E00091EA030F41F4002130BD00BF90F0000FC1
:1031F00004BF0021704730B54FF4806404F13204FD
:103200004FF000054FF0000150E700BF90F0000FB5
:1032100004BF0021704730B54FF4806404F13204DC
:1032200010F0004548BF40424FF000013EE700BFAC
:1032300042004FEAE2014FEA31014FEA02701FBF3C
:1032400012F07F4393F07F4F81F06051704792F00E
:10325000000F14BF93F07F4F704730B54FF4607488
:1032600001F0004521F0004120E700BF50EA0102D3
:1032700008BF704730B54FF000050AE050EA010280
:1032800008BF704730B511F0004502D5404261EBF0
:1032900041014FF4806404F132045FEA915C3FF431
:1032A000DCAE4FF003025FEADC0C18BF03325FEACA
:1032B000DC0C18BF033202EBDC02C2F1200300FA7F
:1032C00003FC20FA02F001FA03FE40EA0E0021FAA4
:1032D00002F11444C1E600BF70B50F4E0F4D761BCE
:1032E000B61018BF002405D0013455F8043B9847A8
:1032F000A642F9D10A4E0B4D761B05F07DFCB610A7
:1033000018BF002406D0013455F8043B9847A64264
:10331000F9D170BD70BD00BF048C4000048C40002A
:103320000C8C4000048C4000024B0146186800F0F1
:103330000BB800BF0C004020024B0146186803F098
:1033400027BA00BF0C0040202DE9F04F01F10B0619
:10335000162E83B0054640F29E8036F0070600F137
:10336000BD80B14200F2BA8000F086FBB6F5FC7F6A
:10337000C0F09382730A00F0B880042B00F27981C8
:10338000B30903F1390003F1380EC300BF4F3B44CA
:10339000A3F108015C68A14206D10CE0002A80F28A
:1033A000AA80E468A14206D0636823F003039A1B55
:1033B0000F2AF3DD70463C69DFF8E4E2744500F063
:1033C000AB81636823F003039A1B0F2A00F39081FB
:1033D000002AC7F814E0C7F810E080F29D80B3F52A
:1033E000007F80F06181DB0803F1010C99107A689D
:1033F00057F83C80C4F8088001238B4007EBCC01D0
:1034000013430839E1607B6047F83C40C8F80C4042
:103410008210012494409C4200F28B801C4206D111
:1034200020F0030064001C4200F10400FAD007EB16
:10343000C009CC468046DCF80C309C4507D16DE1D4
:10344000002A80F27B81DB689C4500F06781596827
:1034500021F003018A1B0F2AF2DDD3F80CC0D3F848
:10346000088000939C19284646F0010642F00105A9
:103470005E60C8F80CC0CCF808807C613C61C4F880
:103480000CE0C4F808E065605A5000F0FBFA009BBD
:1034900003F108041EE0102920D800F0EDFA1026F0
:1034A00018230220794F3B44A3F108025C68944240
:1034B00000F03D816368E168A66823F003032344BC
:1034C00028465A68F16042F001028E605A6000F0AE
:1034D000D9FA0834204603B0BDE8F08F00240C234D
:1034E00020462B6003B0BDE8F08F40204FF40073FE
:1034F0004FF03F0E4AE72344E1685A68A66842F05D
:103500000102F16028468E605A6000F0BBFA083470
:10351000204603B0BDE8F08F234428465A6842F0A5
:1035200001025A6000F0AEFA0834204603B0BDE84C
:10353000F08FBC68636823F00308B04504D3A8EBA0
:1035400006030F2B00F38580DFF85891504BD9F814
:1035500000201B680132334404EB080A00F0558157
:1035600003F580530F3323F47F6B2BF00F0B594679
:10357000284600F0F7FA411C024600F0FC80824524
:1035800000F2F780434B19685944196000F04D81EF
:10359000D9F8000001301BBFA2EB0A0A5144C9F858
:1035A0000020196012F0070100F01581C1F1080038
:1035B000C1F580510244083102EB0B09C9F30B0934
:1035C000A1EB0909494628460193009200F0CAFA86
:1035D000431C9DE80C0000F04381801A484440F0F1
:1035E00001001968BA604944BC425060196017D0A4
:1035F000B8F10F0F40F2FB806068A8F10C0222F0D6
:10360000070204EB020E00F001004FF0050C10431E
:103610000F2A6060CEF804C0CEF808C000F217810F
:103620001D4BBC681A68914288BF19601B4B1A6811
:103630009142626888BF196022F003029642A2EBB1
:10364000060301D80F2B04DC284600F01BFA0024E7
:1036500040E7A21943F0010346F0010666602846E0
:10366000BA60536000F00EFA0834204603B0BDE89B
:10367000F08F142B71D9542B00F2A380330B03F17C
:103680006F0003F16E0EC30080E600BF38044020D7
:10369000C40B4020940B4020BC0B4020C00B4020AA
:1036A00040044020400840205A0A042A5BD9142ACA
:1036B00000F2AE8002F15C01C9005B3207EB010C45
:1036C0007958ACF1080C8C4500F088804A6822F0EB
:1036D0000302934273D289688C45F7D1DCF80C2041
:1036E0007B68E260C4F808C09460CCF80C408FE6B8
:1036F000A11946F0010C42F00106C4F804C02846A6
:1037000079613961C1F80CE0C1F808E04E60E2501F
:1037100000F0B8F90834DDE67B6879E608F10108C5
:1037200018F0030F0CF1080C7FF485AE2DE0DC6877
:10373000A34208BF02303FF43EAEBBE619441C462C
:103740004A68DB6854F8086F42F001024A60284674
:10375000F3609E6000F096F9BCE603F15C0003F1B3
:103760005B0EC30012E69A0902F13901C900383232
:10377000A4E7BC4254D0BC68626822F003025DE753
:1037800059F80839994540F0868010F0030F00F190
:10379000FF30F5D17B6823EA04037B6064009C4220
:1037A0003FF6C7AE002C3FF4C4AE1C4240467FF447
:1037B0003EAE64001C4200F10400FAD037E68C46AD
:1037C0008CE7B3F5AA7F15D8F30B03F1780003F16A
:1037D000770EC300DAE54FF48051EDE67B68921076
:1037E000012101FA02F213437B60624679E701236B
:1037F000536029E740F25452934222D8B30C03F1AC
:103800007D0003F17C0EC300C0E503F1100BAEE6B2
:10381000542A29D81A0B02F16F01C9006E324DE704
:10382000204B196859441960B2E6CAF30B0000280E
:103830007FF4AEAE08EB0B03BA6843F001035360AC
:10384000EEE67F204FF47E734FF07E0E9EE504F18E
:1038500008012846009302F09BFF009B1968DFE6F1
:1038600001204FF00009BCE6B2F5AA7F05D8DA0BBB
:1038700002F17801C900773220E740F254518A42C0
:1038800005D89A0C02F17D01C9007C3216E74FF48D
:103890007E717E2212E77B6880E7F00806F108035C
:1038A00000E600BF940B4020844641EA000313F079
:1038B00003036DD1403A41D351F8043B40F8043B37
:1038C00051F8043B40F8043B51F8043B40F8043BFA
:1038D00051F8043B40F8043B51F8043B40F8043BEA
:1038E00051F8043B40F8043B51F8043B40F8043BDA
:1038F00051F8043B40F8043B51F8043B40F8043BCA
:1039000051F8043B40F8043B51F8043B40F8043BB9
:1039100051F8043B40F8043B51F8043B40F8043BA9
:1039200051F8043B40F8043B51F8043B40F8043B99
:1039300051F8043B40F8043B403ABDD2303211D339
:1039400051F8043B40F8043B51F8043B40F8043B79
:1039500051F8043B40F8043B51F8043B40F8043B69
:10396000103AEDD20C3205D351F8043B40F8043B39
:10397000043AF9D2043208D0D2071CBF11F8013B37
:1039800000F8013B01D30B8803806046704700BFFD
:10399000082A13D38B078DD010F003038AD0C3F10C
:1039A0000403D21ADB071CBF11F8013B00F8013BEE
:1039B00080D331F8023B20F8023B7BE7043AD9D3AD
:1039C000013A11F8013B00F8013BF9D20B78037082
:1039D0004B7843708B7883706046704770B486076D
:1039E00046D0541E002A41D0CAB2034602E014F168
:1039F000FF343BD303F8012B9D07F8D1032C2ED9BC
:103A0000CDB245EA05250F2C45EA054519D903F144
:103A100010022646103E0F2E42F8105C42F80C5C55
:103A200042F8085C42F8045C02F11002F2D8A4F1FA
:103A3000100222F00F0204F00F041032032C134482
:103A40000DD91E462246043A032A46F8045BFAD8EA
:103A5000221F22F003020432134404F003042CB1A9
:103A6000C9B21C4403F8011B9C42FBD170BC7047D7
:103A700014460346C2E700BF014803F023B900BF64
:103A8000240C4020014803F01FB900BF240C402043
:103A90000FB400B5074983B004AB086853F8042B92
:103AA0008168019300F0BAF903B05DF804EB04B04B
:103AB000704700BF0C004020F0B5054689B00846AD
:103AC0000C4600F03DF9AB6B214F04940126441CD9
:103AD00004A9022203940590AC6806970796019109
:103AE000029253B3636E13F0010FB4F90C309AB223
:103AF00001D1900525D5910406D4626E43F400539C
:103B000022F40052A3816266284601AA214602F0EF
:103B100025FF636E00280CBF0A254FF0FF35DA073A
:103B200002D4A3899B0502D5284609B0F0BDA06D3B
:103B300003F0CAF8284609B0F0BD284602F086FD19
:103B4000D0E7A06D03F0BEF8B4F90C309AB2D2E71A
:103B500024894000024B01461868FFF7ADBF00BF43
:103B60000C00402038B5074C00230546084623606A
:103B7000FDF7DAF8431C00D038BD2368002BFBD0DA
:103B80002B6038BD380C402000290CBF02220022D7
:103B90004FF4806300F000B82DE9F043614C2568D4
:103BA00083B004460F4690461E4615B1AB6B002B02
:103BB00064D0B8F1020F06D0B8F1010F00F29F8077
:103BC000002EC0F29C80636ED80734D5214628466B
:103BD00002F0E4FC216B41B104F14003994202D0B0
:103BE000284602F0D5FD00232363B4F90C300022EF
:103BF000A26162601A063AD423F44A6323F00303F5
:103C0000B8F1020FA3811DD001AB6A4621462846B8
:103C100003F05CF8A3891843A081002E32D1009EE6
:103C20003046FFF781FB074600286BD0A38943F09D
:103C30008003A38128E0A3899905C7D4A06D03F070
:103C400041F8C3E70025616E002604F1430243F00A
:103C500002030120A660CE07A38122602261606179
:103C600001D498053ED5284603B0BDE8F08321690C
:103C7000284602F08DFDB4F90C30BDE7284602F06D
:103C8000E5FC96E7002FCBD0AB6B002B33D0009B2D
:103C9000B4F90C2027609E421CBF42F40062A2814E
:103CA000B8F1010F04BF42F00102A28192B212F0FA
:103CB0000803276166610ED0D1071AD5656E76427A
:103CC000002315F00105A661A36009D00025284650
:103CD00003B0BDE8F083A360656E15F00105F5D172
:103CE0009305C0D4A06D02F0EFFF284603B0BDE8F5
:103CF000F083A660F0E7284602F0A8FCC7E74FF083
:103D0000FF35B0E7DDF80090B14504D04846FFF735
:103D10000BFB074620B9B4F90C304FF0FF3592E7A2
:103D20004E4683E70C004020000000000000000029
:103D30000000000000000000000000000000000083
:103D400090F800F06DE9024520F007016FF0000CDB
:103D500010F0070491F820F040F049804FF0000483
:103D60006FF00700D1E9002391F840F000F108005E
:103D700082FA4CF2A4FA8CF283FA4CF3A2FA8CF396
:103D80004BBBD1E9022382FA4CF200F10800A4FAFD
:103D90008CF283FA4CF3A2FA8CF3E3B9D1E9042351
:103DA00082FA4CF200F10800A4FA8CF283FA4CF388
:103DB000A2FA8CF37BB9D1E9062301F1200182FA42
:103DC0004CF200F10800A4FA8CF283FA4CF3A2FA48
:103DD0008CF3002BC6D0002A04BF04301A4612BA56
:103DE000B2FA82F2FDE8024500EBD2007047D1E959
:103DF000002304F00305C4F100004FEAC50514F0E8
:103E0000040F91F840F00CFA05F562EA05021CBFB8
:103E100063EA050362464FF00004A9E72DE9F04F7D
:103E2000C1B01D468A4691460446089002F038FF0C
:103E3000036815931846FFF783FF0E9514901CB185
:103E4000A36B002B00F05F82DAF86430BAF90C2023
:103E500013F0010F93B202D1990540F175829F04CE
:103E60000AD4DAF8641042F4005321F40051AAF89D
:103E70000C30CAF864109BB21E0740F12382DAF8B6
:103E80001020002A00F01E8203F01A020A2A00F015
:103E90003E82002318461193139312932593249383
:103EA000189319930B9330AB239398461690179061
:103EB000CDF828A099F800304C46EBB1252B02D163
:103EC0001AE0252B03D014F8013F002BF9D1A4EB05
:103ED00009058DB1249B259AC8F8009001332A4426
:103EE000072BC8F804502592249300F3018208F1AF
:103EF00008080B9B2B440B932378002B00F0F083D6
:103F000000231A468DF86F3019460C939B4666784D
:103F10004FF0FF3304F10109099309F10109A6F1FA
:103F20002003582B00F2BF83DFE813F0E002BD034B
:103F3000BD034F03BD03BD03BD03BD03BD03BD03EF
:103F400054030803BD031A02E802BD0303033A0346
:103F50003A033A033A033A033A033A033A033A0379
:103F6000BD03BD03BD03BD03BD03BD03BD03BD0351
:103F7000BD03BD0349036203BD036203BD03BD036B
:103F8000BD03BD03A203BD03BD036F00BD03BD039D
:103F9000BD03BD03BD035900BD03BD031E03BD0327
:103FA000BD03BD03BD03BD03BD03BD03BD03BD0311
:103FB000BD0324037302620362036203B702730248
:103FC000BD03BD03BC02BD03C90271000D0347025E
:103FD000BD035202BD035B00BD03BD031F024BF0D6
:103FE000100B1BF0200F40F053830E9A1BF0100FA4
:103FF000134640F0B4851BF0400F00F0B0851488E4
:104000000432002501230E9214E04BF0100B1BF03C
:10401000200340F032831BF0100240F089851BF032
:10402000400300F085850E9913460A4604320C8839
:104030000E9200254FF0000A8DF86FA009994A1CD6
:1040400000F00B822BF08002069254EA050240F049
:104050000A82002940F06F84002B40F02D851BF070
:1040600001030D9300F0688640AF302307F8413D0F
:10407000099B0D9A9342B8BF1346079300231093F0
:10408000BAF1000F02D0079B01330793069B13F090
:1040900002030F9302D0079B02330793069B13F092
:1040A000840540F01B830C9B079AA3EB020BBBF12A
:1040B000000F40F31383BBF1100F2599249A28DDDC
:1040C00043461024A846DDF820A00A9D06E0ABF187
:1040D000100BBBF1100F03F1080318DD0132B948D2
:1040E00024921031072A259183E81100EFDD23AADD
:1040F0002946504603F03CFC002840F06A83ABF1AF
:10410000100BBBF1100F2599249A30ABE6DC454625
:1041100098460132AB4B24920BEB0104072A2594FD
:1041200088E8080800F3CD849DF86FA008F108081E
:10413000BAF1000F0ED0249B013301340DF16F0151
:104140000122072B2594249388E8060000F30A84B3
:1041500008F108080F9B6BB1249B013302341CA9A2
:104160000222072B2594249388E8060000F3068496
:1041700008F10808802D00F02E83099B0D9AA3EB0F
:10418000020ABAF1000F3BDDBAF1100F249B8E4DED
:104190002BDD42462146B0464FF0100B2E46089CC0
:1041A0000A9D06E0AAF1100ABAF1100F02F1080206
:1041B00017DD01331031072B2591249382E8400845
:1041C000F0DD23AA2946204603F0D2FB002840F068
:1041D0000083AAF1100ABAF1100F2599249B30AA86
:1041E000E7DC35460C464646904601335444072BDF
:1041F0002594249388E8200400F3A98308F1080893
:10420000069BDB0500F18582249B0D99C8F80070A0
:1042100001330C44072B2594C8F80410249300F3B1
:10422000758308F10808069B59073BD50C9B079A34
:104230009D1A002D36DD102D249B21DD1026089FB0
:10424000DDF828A004E0103D102D08F1080817DD66
:1042500001335C4A24931034072B259488E84400EA
:10426000F1DD23AA5146384603F082FB002840F0D6
:104270003F82103D102D259C249B0DF1C008E7DCEA
:104280000133504A24932C44072B259488E82400BA
:1042900008DD23AA0A99089803F06AFB002840F079
:1042A0004783259C0B9B0C9A07998A42ACBF9B18AD
:1042B0005B180B93002C40F03383002324930DF103
:1042C000C008F7E55146089801F096F8002838D064
:1042D000DAF86430DD0704D4BAF80C309C0540F1FC
:1042E000CA854FF0FF330B930B9841B0BDE8F08FB8
:1042F00023AA0A99089803F03BFB002840F0188392
:104300000DF1C008F5E5089802F0A0F99CE5BAF9AE
:104310000E20002AFFF6BDADDAF86420D00705D4E0
:10432000990503D4DAF8580002F0CEFC2B464A4631
:104330005146089801F01EF80B900B9841B0BDE86B
:10434000F08FBAF80C309FE5DAF8580002F0BAFCAA
:10435000BAF90C2093B282E50C980E9340420C906F
:104360004BF0040B99F80060D7E5002A40F0DF8796
:10437000164B18931BF0200F40F0B9840E9A1BF0D7
:10438000100F134640F0DC831BF0400F00F0D88381
:10439000043314880E9300251BF0010F00F02283D4
:1043A00054EA050300F01E8330238DF870308DF839
:1043B00071604BF0020B02233CE64BF0200B99F8A6
:1043C0000060AAE5B4894000C48940009489400097
:1043D0000E9A176800248DF86F40151D002F00F00D
:1043E0004E86099A531C00F0CC852146384602F0CF
:1043F000E7FC002800F09786C31B0D9309940E95E7
:10440000CDF818B023EAE373079310949DF86FA0DA
:1044100036E6002A40F096871BF0200F40F05A84C1
:104420001BF0100F40F0A2831BF0400F00F09E83A2
:104430000E99B1F900400431E51722462B460E9142
:10444000002A73F10003C0F2878409999DF86FA0D8
:104450004A1C4FF001037FF4F5AD54EA050200F069
:104460006C82CDF818B0012B00F00883022B40F0CD
:104470009582189830AF230904F00F0143EA0573C1
:104480002A091C461546435C07F8013D54EA05031A
:10449000F1D130ABDB1B0D93EAE54BF0400B99F803
:1044A00000603AE599F800606C2E03BF99F801604E
:1044B0004BF0200B09F101094BF0100B2DE5002A00
:1044C00040F04C871BF0200F40F03F851BF0100F91
:1044D00040F0FC801BF0400F00F0F8800E9A13684B
:1044E00004320E92BDF82C201A80E3E499F80060A3
:1044F00000297FF412AD012220210EE599F8006019
:104500002A2E09F1010000F0F186A6F13003092BF3
:10451000814698BF002000F23D8619F8016B00EB40
:10452000800003EB4000A6F13003092BF5D9099078
:10453000F5E44BF0800B99F80060EEE499F8006028
:1045400001222B21E9E40E9AAE4B146818937826C9
:10455000302304328DF870304BF0020B0E920025A0
:104560008DF87160022365E5002A40F0E486A64BD1
:104570001893FFE60E99CDF818B00A688DF89820C8
:1045800000230A469A468DF86F30043201230793C0
:10459000CDF824A0CDF840A00E920D9326AF75E57E
:1045A000A6F13003002019F8016B00EB800003EB4B
:1045B0004000A6F13003092BF5D90C90AFE4002A96
:1045C00040F0C8864BF0100B26E74BF0010B99F832
:1045D0000060A2E40E9C23680C9318460028234632
:1045E00003F10403FFF6B8AE0E9399F8006094E46B
:1045F000002A40F0B7860E9D073525F0070303F12A
:1046000008020E921A6813925B681293129B139D14
:1046100023F00044284621464FF0FF327B4B03F045
:10462000F1FE002840F0A283284621464FF0FF32D9
:10463000764B03F0C9FE002840F09883169A139831
:10464000179B129903F0B6FE002840F035849DF8C0
:104650006FA06F4F6F4B032200212BF08000079259
:1046600009910690472ED8BF1F460D92109107E57D
:104670004BF0080B99F800604FE40E9D073525F0CC
:10468000070303F10802D3E900450E920023D1E4A9
:104690000E9D073525F0070303F10802D3E9004515
:1046A0000E920123C6E4002A40F05086C6B10023D2
:1046B00001229A4607928DF89860CDF818B08DF8CF
:1046C0006F30099310930D9226AFDFE40E9A1368B2
:1046D00004320E920B9A1A60FFF7ECBB259C27E57B
:1046E000259BDDF828A0002B40F09485002324931F
:1046F000DAF8643013F0010FBAF80C3002D19A05E1
:1047000040F149825B063FF5ECAD0B9841B0BDE846
:10471000F08F652E40F3B280169A1398179B12996A
:1047200003F03EFE002800F06081249B3A4AC8F85E
:104730000020013301340122072B25942493C8F86B
:10474000042000F3BF8308F108081D9B119A259CE3
:10475000934203DB069BDF077FF565AD249B14992D
:10476000159AC8F8002001330C44072BC8F8041030
:104770002594249300F3F88308F10808119B5E1E2A
:10478000002E7FF750AD102E249B244D40F3DD8189
:104790001027DDF820A0DDF828B005E008F10808B2
:1047A000103E102E40F3D18101331034072B259495
:1047B000249388E8A000F1DD23AA5946504603F06F
:1047C000D7F8002840F0CD83259C249B0DF1C0082C
:1047D000E6E7AA468CE70C9B079AA3EB020ABAF11C
:1047E000000F7FF7CAACBAF1100F249B0B4D39DDD7
:1047F00042462146B0464FF0100B2E46089C0A9DBB
:1048000015E000BF9489400080894000FFFFEF7FE2
:104810007489400070894000B0894000C48940001C
:10482000AAF1100ABAF1100F02F1080216DD0133E5
:104830001031072B2591249382E84008F0DD23AA4C
:104840002946204603F094F80028C2D1AAF1100AA4
:10485000BAF1100F2599249B30AAE8DC35460C46A6
:104860004646904601335444072B2594249388E808
:10487000200400F3648208F108087EE4119B249E62
:10488000012B40F3FD81013601340123072E2594CD
:104890002496C8F80070C8F8043000F30E8208F1BE
:1048A0000808149A159BC8F8003001361444072EE6
:1048B00025942496C8F8042000F32E8208F10808F5
:1048C000179B169A1398129903F06AFD119B002802
:1048D00040F00681013B013601371C44072E249627
:1048E0002594C8F80070C8F8043000F3D98108F1A5
:1048F0000808199AC8F80420013614441FAB072E83
:1049000025942496C8F800307FF78BAC23AA0A9927
:10491000089803F02DF858B9259C0DF1C00882E4E1
:1049200023AA0A99089803F023F800283FF4C5AC9D
:10493000DDF828A0DCE6DDF818B0012B00F02181BD
:10494000022B27D1CDF818B00024002591E523AA29
:104950000A99089803F00CF80028E9D1259C0DF17C
:10496000C0084DE423AA0A99089803F001F800282A
:10497000DED1259C0DF1C008FFF7ECBB23AA0A99F4
:10498000089802F0F5FF0028D2D1259C0DF1C0084F
:10499000FFF7F0BBCDF818B00024002530A900E0E7
:1049A0003946E20842EA4572E80804F00703054682
:1049B0001446303354EA050201F8013C01F1FF3797
:1049C000EED1069AD2077FF564AD302B3FF461AD8E
:1049D0003023023907F8013C30AB5B1A0D930F46C8
:1049E000FFF746BB0223FFF725BB1D99002940F3C3
:1049F0007482109B119A9342A8BF1346002B1E4647
:104A00000DDD249BC8F8007001333444072B259436
:104A1000C8F80460249300F3248308F10808109B6D
:104A2000002EA8BF9B1B002B1E4640F3D080102EEB
:104A3000249BC04D40F3B78022464FF0100ADDF8AA
:104A400020B00A9C05E008F10808103E102E40F343
:104A5000A98001331032072B2592249388E8200483
:104A6000F1DD23AA2146584602F082FF002840F0DB
:104A70002483259A249B0DF1C008E6E7002D08BF8A
:104A80000A2C7CD330AF204629460A22002303F0AB
:104A9000F7FC303207F8012D2046294600230A2270
:104AA00003F0EEFC04460D4654EA0503EBD130ABAF
:104AB000DB1B0D93FFF7DCBA099B0D9330AFFFF7BB
:104AC000D7BA23AA0A99089802F052FF00287FF467
:104AD0002FAF9DF86FA0259C0DF1C008FFF728BBF4
:104AE0005F1E002F7FF705AF102F924D40F30A8114
:104AF0004FF0100ADDF820B005E008F10808103F7B
:104B0000102F40F3FF8001361034072E2594249691
:104B100088E82004F1DD23AA0A99584602F028FF0C
:104B200000287FF405AF259C249E0DF1C008E6E720
:104B30000E990A4604320C680E920025FFF77ABAE5
:104B40001C6804330E93002526E401333444072BFC
:104B50002594249388E860007FF763ABD6E604329F
:104B60001C680E9201230025FFF764BA0E9A1468A0
:104B700013460433E5170E9322462B4660E4DDF816
:104B800018B0CDF818B040AF3034012307F8414DCC
:104B90000D93FFF76DBADAF8580002F095F8BAF8FD
:104BA0000C30AFE5144601333444072B259424938D
:104BB00088E8600040F36D8123AA0A99089802F002
:104BC000D7FE00287FF4B4AE259C0DF1C0081D9BD4
:104BD000119A934280F25881249A14981599C8F832
:104BE000001001320444072A2594C8F804002492D6
:104BF00000F3528108F10808119A1099D31A561A35
:104C00009E42A8BF1E46002E0EDD249AC8F80460FE
:104C100001320F443444072AC8F8007025942492C6
:104C200000F33C8208F10808002EACBF9E1B1E4614
:104C3000002E7FF7F8AA102E249B3E4D85DD10270D
:104C4000DDF820A0DDF828B005E008F10808103EE6
:104C5000102E7FF77AAF01331034072B259424935D
:104C600088E8A000F1DD23AA5946504602F080FEF4
:104C7000002840F07681259C249B0DF1C008E6E7D2
:104C8000069BD8073FF5FFAD013601340123072EFF
:104C900025942496C8F80070C8F804307FF727AE32
:104CA00023AA0A99089802F063FE00287FF440AE18
:104CB000259C249E0DF1C0081BE623AA0A9908989A
:104CC00002F056FE00287FF433AE259C249E0DF1A1
:104CD000C008E6E50E9D073525F00705D5E9002358
:104CE00005F108010E9114461D46FFF7A9BB0E9D64
:104CF000073525F0070303F108020E92D3E90045BA
:104D0000FFF74ABB01363C44072E2594249688E8D9
:104D1000A0007FF7ECADC3E723AA0A99089802F038
:104D200027FE00287FF404AE259C249E0DF1C008C8
:104D3000C6E500BFC489400030AFFFF799B923AA88
:104D40000A99089802F014FE00287FF4F1AD259C22
:104D50000DF1C008FFF711BA4FF02D0A644265EB60
:104D600045058DF86FA00123FFF768B9139C224613
:104D70002046129C2346214603F044FB002840F0C5
:104D80008C82099B013326F020030D9300F0918063
:104D9000472B04D1099B002B08BF012309934BF437
:104DA00080730693129BB3F1000A139B0793BBBF5A
:104DB000534603F1004A00232D23662E0F9300F083
:104DC0007F81462E00F0D4810D9B079A452B0CBFA6
:104DD000099B099D21A81EA908BF5D1C0490039191
:104DE0001DA802210290534601950091089800F0F9
:104DF0000BFC672E074640F0AF811BF0010F00F05F
:104E000013827C19169A0798179B514603F0C8FA2B
:104E1000002840F03281219BA34206D230215A1C47
:104E200021921970219B9C42F9D8DB1B11930D9B99
:104E3000472B00F0B980652E40F376821D9B1093BE
:104E4000662E00F06281119B109A1946914200F380
:104E50004F811BF0010F40F0098222EAE2730793B1
:104E60000D9267260F9B002B40F0968009939DF8CA
:104E70006FA0FFF705B9DAF8580001F025FF4FF0F1
:104E8000FF330B93FFF730BA069AD5077FF5B4AE20
:104E9000A2E608F108089AE623AA0A99089802F0FF
:104EA00067FD00287FF444AD1D9B259C0DF1C008D3
:104EB000A2E60623099372E74FF02D0A8DF86FA042
:104EC000FFF7C7BB23AA0A99089802F051FD0028F2
:104ED0007FF42EAD0DF1C00837E4249BB44AC8F826
:104EE0000020013301340122072B25942493C8F8B4
:104EF000042000F3248108F1080829B9119B1BB98B
:104F0000069BDE077FF58FA9249B1498159AC8F895
:104F10000020013302462244072B2592C8F80400E2
:104F2000249300F3698108F108080029C0F2368152
:104F30001199C8F8007001338C18072B259424931D
:104F4000C8F804107FF76DA9E0E40E9A0B99136876
:104F5000CD170846043229460E92C3E90001FEF738
:104F6000A9BFDA46FFF7C4BB23AA0A99089802F042
:104F7000FFFC00287FF4DCAC259C0DF1C008FFF796
:104F8000FDBB38460994FEF7DBFE0E950D90CDF87B
:104F900018B00346FFF736BA4FF02D0A00238DF8FC
:104FA0006FA00993FFF76FB81D9B10931A46033348
:104FB00004DB099B19469142BFF645AF023E109BA8
:104FC0008DF87C60013B002B1D93BDBF109BC3F18E
:104FD00001032D222B22092B8DF87D2040F33E81E9
:104FE0000DF18B042046734D00E0104685FB031243
:104FF000D917C1EBA20101EB8102A3EB42023032CF
:10500000092900F8012C0B4600F1FF32EDDC3033AA
:105010000238D9B2844202F8011C40F290810DF1AD
:105020007E00134601E013F8011B00F8011BA342A8
:10503000F9D101339B1A0DF17E0213441FAA9B1A6A
:10504000119A1993012A13440D9340F345810D9B46
:10505000149A13440D9323EAE373079300231093E8
:1050600000E723AA0A99089802F082FC00287FF43E
:105070005FAC259C0DF1C008D1E42346D5E6099B21
:105080001097062B28BF06230997BA4607930E955B
:10509000CDF818B00D93484FFEF7F2BF23AA0A9936
:1050A000089802F065FC00287FF442AC1D9B119A21
:1050B000259CD31A0DF1C008B6E5A246FFF718BB30
:1050C00021A81EA9099D049003911DA80321029007
:1050D000079A019553460091089800F095FA074603
:1050E00044193B78302B00F0CA801D9D2C4489E682
:1050F000149A119B1344109A0D93002A40F3E480F4
:1051000023EAE37307936726ACE6002B40F3FB80AA
:10511000099A002A40F0CE801BF0010F40F0CA80AF
:1051200007930D939EE6099B07930D9309900E95A7
:10513000CDF818B010909DF86FA0FEF7A1BF23AA7C
:105140000A99089802F014FC00287FF4F1AB1D992D
:10515000259C0DF1C008D0E6472E7FF452AE1BF01F
:10516000010F00F0DA80462E07EB0504B9D049E6BE
:1051700021A81EA9099C049003911DA80321029057
:10518000079A019453460091089800F03DFA25468D
:105190000746E8E700230993FEF7C1BE4E421031EF
:1051A000064D43DA1024DDF820A0DDF828B00CE02D
:1051B000B089400067666666A8894000C4894000DF
:1051C00008F10808103E102E30DD01331032072B95
:1051D00025922493C8F80050C8F80440F0DD23AAB3
:1051E0005946504602F0C4FB00287FF4BAAE259A17
:1051F000249B0DF1C008E5E723AA0A99089802F05C
:10520000B7FB00287FF494AB1D99259A249B0DF1E0
:10521000C0088AE6089823AA514602F0A9FB002894
:105220003FF464AAFFF764BA219BFEE501333244E0
:10523000072B88E860002592249308F108087FF77F
:1052400077AE23AA0A99089802F092FB00287FF40F
:105250006FAB259A249B0DF1C00869E630333022EC
:105260008DF87F308DF87E2020ABE7E6109B149AF6
:1052700013440D9323EAE37307936726F2E5169A26
:105280000798179B514603F08BF800287FF42DAF49
:10529000C5F101051D952C44B4E5129B334F002B3D
:1052A000B6BF4FF02D0A9DF86FA08DF86FA0304B60
:1052B000FFF7D1B9109B149A1344099A1A4422EAB1
:1052C000E2730D920793CDE5109B0D9AC3F1010394
:1052D0001A4413460D9213E71BF0010310937FF459
:1052E000B6AE0D9B23EAE3730793BBE50E9C99F8DA
:1052F0000160236843EAE37309932346043381463C
:105300000E93FEF70ABE099B13B91BF0010F02D0E2
:10531000149B0133D1E7012302E7219BDB1B11938F
:105320000D9B472B3FF440AE1D9B109347E68DF835
:105330006F10FFF71DB88DF86F10FFF718B90DF15A
:105340007E037BE68DF86F10FFF766B88DF86F105F
:10535000FFF7ACB98DF86F10FFF734B98DF86F1007
:10536000FFF7B0B88DF86F10FFF745B97C894000A2
:10537000788940002DE9F0410C46ADF58D6D8989A5
:10538000666EE589199621F002010646E069ADF8DE
:105390000C1017464FF48061626AADF80E509846C3
:1053A0001AAD0023079016A809920693009504955C
:1053B0000291059101F082FC43463A466946304627
:1053C000FEF72CFD051E07DB3046694601F0E6F8C6
:1053D000002818BF4FF0FF35BDF80C305B0603D531
:1053E000A38943F04003A381169801F069FC284685
:1053F0000DF58D6DBDE8F08138B5304B1B68054665
:105400000C4613B19A6B002A38D0B4F90C2093B231
:1054100018070CD52069A8B113F001021ED06369EA
:1054200000225B42A361A260F0B1002038BDD90622
:105430003CD5580726D4206942F00803A3819BB2CB
:105440000028E9D103F42072B2F5007FE4D02846A9
:10545000214601F069FCA3892069DDE7990758BF5F
:105460006269A2600028E0D1B4F90C301A06DDD5DB
:1054700043F04003A3814FF0FF3038BD184601F0E0
:10548000E5F8C2E7216B51B104F14003994204D021
:10549000284601F07DF9B4F90C2000232363002392
:1054A0002069636022F024022060C5E742F04002D8
:1054B00009232B604FF0FF30A28138BD0C00402043
:1054C000024B13B1024800F005B87047000000001D
:1054D000BD664000002301461A46184602F068BA2D
:1054E00002690B69934200F38D802DE9F04F03F1BF
:1054F000FF3801F1140700F1140B57F828205BF86E
:1055000028304FEA880483B00132B3FBF2F90BEB89
:105510000403009407EB040A0193B9F1000F39D09A
:1055200000252E46BC46DE465CF8044BDEF8003013
:10553000A2B209FB0255220C2C0C09FB0242ADB2AF
:10554000751B96B2C6EB134615FA83F306EB23469A
:105550009BB243EA0643E2454FEA12454EF8043B4C
:105560004FEA2646E0D2009B5BF8033093B9019CDA
:10557000231F9B450CD254F8043C4BB9A4F10803FB
:1055800002E01A68043B1AB99B4508F1FF38F8D3CA
:10559000C0F81080044601F0C5FE00282EDB09F19A
:1055A00001095D46002357F8041B28688AB29A1A3D
:1055B0000B0C12FA80F2C3EB104303EB224392B2BE
:1055C00042EA0342BA4545F8042B4FEA2343EAD2A4
:1055D0005BF828200BEB880382B91A1F93450BD286
:1055E00053F8042C42B9083B02E01A68043B1AB98C
:1055F0009B4508F1FF38F8D3C4F81080484603B043
:10560000BDE8F08F002070472DE9F04F016C9BB092
:105610000446279E92469B4641B1426C4A60012354
:1056200093408B6001F0A6FC00232364BBF1000FC4
:105630005D4635DB002333609D4BAB4315D05046B0
:1056400059460022002302F0ABFE804600282DD0F0
:10565000269A01231360289B002B00F0BD809548FB
:10566000186001381BB0BDE8F08F269A42F20F7324
:105670001360BAF1000F0DD1C5F3130555B9289B7E
:105680008D48002BEED000F10803289A13601BB060
:10569000BDE8F08F289B8948002BE3D0C31CF4E7BA
:1056A00001232BF000453360AB46C5E718AA19ABC0
:1056B0000192009352465B46204601F0D3FE2B0D2B
:1056C000814671D0CBF3130242F07F51189FCDF881
:1056D00050805046A3F2FF3641F440110022784B2F
:1056E000FDF746FC6CA3D3E9002302F0F1FB6CA3A9
:1056F000D3E90023FDF73EFCCDE902013046FDF77A
:1057000085FD69A3D3E9002302F0E2FB02460B46C4
:10571000DDE90201FDF72EFCCDE9040102F088FE6F
:10572000002202900023DDE9040102F043FE00287C
:1057300040F07381029D162D00F25D81614B03EBF9
:10574000C503D3E9000152465B4602F051FE002832
:1057500000F0C5816B1E029300230E93BF1B7B1EBE
:10576000069300F1548100230893029B002BC0F2A2
:105770004581069A0D9311461944002306910C9316
:10578000249B092B2AD8052B40F35B86043B2493EA
:105790000025249B023B032B00F24286DFE813F036
:1057A000D403C902DF036104189F199E3E4406F228
:1057B0003243202B40F38E81C3F1400306F21240A6
:1057C0009D402AFA00F02843FDF710FD0123013E19
:1057D000A1F1F871149381E73B4843E7002161642C
:1057E0002046259101F0A0FB4FF0FF330A93259A44
:1057F0000F9301230490206424920B93199B002B98
:10580000C0F2D980029A0E2A00F3D5802D4B03EB0B
:10581000C203D3E90023CDE90823259B002BC0F266
:10582000BA83DDE9085650462A463346594602F007
:1058300079FC02F0FDFD8046FDF7E8FC2A46334680
:1058400002F046FB0B46024659465046FDF790FBD8
:10585000049D08F130032B700A9B012B06460F466E
:1058600005F1010568D00022184B02F031FB00223F
:10587000002306460F4602F093FD002840F0888082
:10588000CDF82C904FF0000ADFF840B00C94DDE921
:10589000088928E0AFF3008061436F63A787D23F98
:1058A000B3C8608B288AC63FFB799F501344D33F0F
:1058B0000000F07FB1894000D4894000E0894000B9
:1058C0000000F83F108A4000B089400000002440EA
:1058D00002F0FEFA0022002306460F4602F060FDA9
:1058E000002840F0C18342464B463046394602F01C
:1058F00019FC02F09DFD0446FDF788FC42464B462C
:1059000002F0E6FA02460B4630463946FDF730FB18
:1059100004F1300E049E05F801EBA5EB060E0A9E7D
:10592000B645CDE9060152465B46D1D1A046DDF829
:105930002C900C9C06460F4632463B463046394674
:10594000FDF718FB06460F4602460B46DDE9080147
:1059500002F030FD48B932463B46DDE9080102F06D
:105960001FFDA8B118F0010F12D015F8018C049A90
:105970006B1E04E09A4200F0018413F8018DB8F127
:10598000390F03F10105F5D008F1010883F8008013
:105990004946204601F0EEFA0022029B2A70269A20
:1059A00001331360289B002B00F09E8304981D6038
:1059B0001BB0BDE8F08F0B9A002A3ED0249A012A32
:1059C00040F311830A9B0C9A5F1EBA42C0F28F8388
:1059D000D71B0A9B002BC0F28B84089D0A9B089A58
:1059E0001A440892069A01211A442046069201F0B0
:1059F0005BFB064624E001230E93AFE6089A029B68
:105A0000D21A5B420C93002308920D93B8E6C7F1BB
:105A10000103089300230693A7E6029D2846FDF79D
:105A2000F5FB02460B46DDE9040102F0B9FC002853
:105A30007FF480AE6B1E02937CE60C9F089D0B9E4C
:105A4000002D0CDD069900290B4608DDA942089AB5
:105A5000A8BF2B46D21AED1ACB1A089206930C9BBC
:105A6000D3B10B9B002B00F0B782002F10DD314625
:105A70003A46204601F0B4FB4A4601460646204617
:105A800001F01CFB49468046204601F073FAC146EE
:105A90000C9BDA1B40F0A1820121204601F004FB9F
:105AA0000D9B002B80461CDD01461A46204601F066
:105AB00097FB249B012B804640F3548200230C93D8
:105AC000D8F8103008EB8303186901F09DFAC0F193
:105AD000200010E0C3F120050AFA05F074E60E90EC
