:020000040040BA
:10000000482C4020C90A4000C70A4000C70A4000E7
:10001000C70A4000C70A4000C70A400000000000AD
:10002000000000000000000000000000C10E4000C1
:10003000C70A400000000000610F4000C50F4000EB
:10004000C70A4000C70A4000C70A4000C70A40006C
:10005000C70A4000C70A4000C70A4000C70A40005C
:10006000C70A4000000000008D054000A1054000C7
:10007000B5054000C70A4000C70A4000C70A400053
:10008000C9054000DD054000C70A4000C70A40001E
:10009000C70A4000C70A4000C70A4000C70A40001C
:1000A000C70A4000C70A4000C70A4000C70A40000C
:1000B000C70A4000C70A4000C70A4000C70A4000FC
:1000C000C70A4000C70A4000C70A4000C70A4000EC
:1000D000C70A4000C70A4000C70A4000C70A4000DC
:1000E000C70A4000C70A4000C70A4000C70A4000CC
:1000F000C70A4000C70A4000C70A4000C70A4000BC
:10010000C70A4000C70A4000C70A4000C70A4000AB
:10011000C70A4000000000000000000000000000CE
:10012000C70A4000C70A4000C70A4000C70A40008B
:10013000C70A4000C70A4000C70A4000C70A40007B
:10014000C70A4000C70A4000C70A4000C70A40006B
:10015000C70A4000C70A4000C70A4000C70A40005B
:10016000C70A4000C70A400010B5054C237833B9D0
:10017000044B13B10448AFF300800123237010BD7A
:10018000C009402000000000049840000C4B43B11F
:100190000C480D4910B5AFF300800C48036823B933
:1001A00010BD0A48036833B97047094B002BF7D0DC
:1001B000BDE810401847064B002BF5D0184700BF8C
:1001C0000000000004984000C4094020049840004A
:1001D0000000000010B51048104B98473E21002049
:1001E0000F4B98470F4CA0470028FCD00E4B984768
:1001F0000E4A0F4B9A620F4CA0470028FCD00220F9
:100200000D4B984700200D4B98470D4B98470248DF
:10021000024B984710BD00BF80D1F0089D0C4000F4
:100220008D064000E1064000F1064000013F182025
:1002300000060E4001074000F1054000290640007D
:10024000910B40002DE9F04180B90C469046002A00
:100250000FDD8F18084E094D306821462B689847EE
:100260000134BC42F8D14046BDE8F0814FF0FF3880
:10027000F9E78046F7E700BFD80B4020D00B4020BD
:100280000138022815D82DE9F0410E4614469AB1DE
:100290000D46DFF838800C4FD8F8000015F8011B28
:1002A0003B68984700280ADBA81B013CF4D1BDE855
:1002B000F0814FF0FF3070471046BDE8F0814FF0FD
:1002C000FF30BDE8F08100BFD40B4020D80B4020A8
:1002D000F8B54FF400425B4B5A60BFF34F8FBFF34A
:1002E0006F8F594B0021C3F85012BFF34F8FBFF3EC
:1002F0006F8F5A6942F400325A61BFF34F8FBFF3D8
:100300006F8FC3F88410BFF34F8FD3F88070C7F39B
:100310004E35C7F3C9076E014FEA877C43F6E07E8E
:100320001C4606EA0E0062463B4640EA0201C4F85B
:100330006012013B02F14042B3F1FF3FF5D1013DB4
:10034000203EB5F1FF3FECD1BFF34F8F3E4B5A69D2
:1003500042F480325A61BFF34F8FBFF36F8F3B4A35
:100360003B495160A1F580715160BFF34F8FBFF3DE
:100370006F8FD3F8902222F00102C3F89022D3F8B5
:10038000942222F00102C3F89422BFF34F8FBFF3EF
:100390006F8F0A202F4CA0470B20A0470C20A047AE
:1003A0001020A0471120A0472B4B4FF480721A61F8
:1003B000C3F8A0201A63A3F580634FF400625A616A
:1003C000C3F8A0205A66C3F890205A651A62C3F891
:1003D0008420196F21F400611967596F21F40061BD
:1003E0005967C3F8C020C3F8D420C3F8B0204FF435
:1003F00000121A66C3F890205A655A62C3F880202A
:10040000196F21F400111967596F21F40011596710
:100410005A60124AD2F8143143F01003C2F8143172
:100420000F4B10221A66C3F890205A655A62C3F81F
:100430008020196F11431967596F114359675A602A
:10044000F8BD00BF50180E4000ED00E0000C0E405B
:100450000C08005A1107400000120E4000800840AE
:1004600000100E4001637047416370474264B1F170
:10047000C05F3AD013D8B1F1006F25D0B1F1805FE1
:100480000AD1036F13430367436F416F0B4023EAA5
:1004900002034367426070470029FBD17047B1F106
:1004A000205F21D009D8B1F1005FF3D1036F13436E
:1004B0000367436F13434367ECE7B1F1405F13D029
:1004C000B1F1605F10D0E5E710B4016F046FD34362
:1004D00021401C4619400167436F416F0B40234088
:1004E000436742605DF8044B7047036F016F0B4038
:1004F00023EA02030367436F13434367CAE710B459
:10050000019C41644CB901664BB101654AB9416334
:10051000016101605DF8044B70474166F4E7416595
:10052000F4E70163F4E7836B0B4214BF0120002062
:100530007047C06C7047806C704700002DE9F04137
:10054000044688460E4B9847054620460D4B984773
:10055000054013D00C4C04F1600603E0B4420DD00A
:1005600010345DB120684045F8D161682942F5D06A
:10057000E3689847636825EA0305EFE7BDE8F08183
:100580003305400037054000DC09402008B50A214A
:100590000148024B984708BD000E0E403D05400043
:1005A00008B50B210148024B984708BD00100E40CA
:1005B0003D05400008B50C210148024B984708BD95
:1005C00000120E403D05400008B510210148024BC5
:1005D000984708BD00140E403D05400008B51121A4
:1005E0000148024B984708BD00160E403D054000EB
:1005F000032811D0042812D002280CBF4FF48071B8
:100600000021084A136B23F440730B431363936E6A
:1006100013F0080FFBD070474FF44071F1E74FF42F
:100620000071EEE700060E40174A136B23F07003CB
:1006300018431063936E13F0080F0AD14FF48053E0
:1006400011498A6E12F0080F03D1013BF9D1012044
:1006500070470D4A136B23F0030343F00203136347
:10066000936E13F0080F0AD14FF4805306498A6E37
:1006700012F0080F05D1013BF9D10120704700208D
:1006800070470020704700BF00060E40A0B90E481A
:10069000036A090289B20D4A1A400D4B13431943EC
:1006A00001620246936E13F0010FFBD0064A116AF5
:1006B000084B0B431362704703490B6A064A1A4002
:1006C000064B13430B62704700060E40FCFFC8FF49
:1006D0000100370000003701FCFFC8FE02003701AF
:1006E000024B986E00F48030704700BF00060E4049
:1006F0004FF00052014B9A62704700BF00060E4057
:10070000024B986E00F00200704700BF00060E40DA
:1007100000F07F00054BC3F80C01D3F80C2142F028
:100720001022C3F80C210020704700BF00060E40C5
:10073000284B99424BD8A3F57A5399422DD910B43E
:10074000254CA4FB0234A40B033C244B0B449B001C
:10075000B2FBF3F2033AFF2C1DD9002101316408EA
:10076000FF2C01D90629F9D9FF2A07D9062905D86E
:1007700001315208FF2A01D90629F9D913029BB287
:10078000090401F4E0210B43E4B223430361002098
:100790005DF8044B70470021E6E74900B2FBF1F237
:1007A000033AFF2A11D9002301335208FF2A01D945
:1007B000062BF9D9110289B21B0403F4E0230B4381
:1007C000D2B21A430261002070470023F2E70120F1
:1007D000704700BF801A0600F11976050012FD3F30
:1007E00008B54FF0FF328262026A80220260026B1B
:1007F0000822026020220260042202600A6849681E
:10080000034B9847012814BF0020012008BD00BFFA
:1008100031074000CB68002B4BD070B48C680026A9
:1008200046604A68120202F4407242F480520D7C23
:100830002D0405F4FE052A434260C6604D685DB193
:100840000A78012D02DD4E7846EA0222022D04DDEF
:10085000897841EA022200E00022C260012202609F
:1008600006E0012B19D0026B04F8012B013B18D0D4
:10087000026A12F4807F22D112F0020FF1D147F206
:100880003052016A11F4807F15D1013A15D011F070
:10089000020FE6D1002BF4D103E002230360036BC7
:1008A0002370036A13F0010FFBD0036A002070BCB1
:1008B0007047012070470520F9E70920F7E7052078
:1008C000F5E7CB68002B43D070B48C6800264660F7
:1008D0000A7C120402F4FE024D682D0205F44075F4
:1008E0002A434260C6604D685DB10A78012D02DD81
:1008F0004E7846EA0222022D04DD897841EA02227E
:1009000000E00022C26004E014F8012B4263013BC6
:100910000FD0026A12F4807F1ED112F0040FF3D1BF
:10092000026A12F4807F15D112F0040FECD1002B73
:10093000F6D1036A13F4807F11D113F0040FF8D0BD
:1009400002230360036A13F0010FFBD0002004E0D0
:1009500001207047052000E0052070BC704705208D
:10096000FBE7000000B587B0002306AA02F8153D9A
:100970000392012204928DF814108DF80430029332
:1009800001A9024B984707B05DF804FBC30840007B
:10099000436913F0020F02D0C161002070470120AB
:1009A0007047436913F0010F03D083690B70002077
:1009B00070470120704710B40B01934214D9C9004D
:1009C0004B0803EBC202B2FBF1F2D3085C1E4FF6F8
:1009D000FE718C4201D9012017E0416841F40021E9
:1009E00041600CE0012010E0590801EBC202B2FBAB
:1009F000F3F2D3085C1E4FF6FE718C42F2D812045B
:100A000002F4E0221A43026200205DF8044B7047B2
:100A1000084BC0F8E43000234360436283628823BC
:100A20000360242303604FF4807303604FF40023BA
:100A3000036070470041535570B505460C46164695
:100A40000F4B984700220F4B1A60A4B13246216821
:100A500028460D4B9847024678B96368A1680B4356
:100A600021690B43E1680B4306490B6069680B433E
:100A70006B60104670BD0122FBE70122F9E700BF61
:100A8000110A40004C0A4020B7094000402303608F
:100A90007047102303607047436913F0020F04D0BE
:100AA000C1F30801C161002070470120704743690C
:100AB00013F0010F05D08369C3F308030B60002016
:100AC000704701207047FEE700B583B0254B264AEA
:100AD0009A4210D0254B234A9A420CD2013B9B1AD2
:100AE00023F00303043313441F4951F8040B42F865
:100AF000040B9A42F9D11E4B1E4A9A420AD2013B7C
:100B00009B1A23F0030304331344002142F8041B0F
:100B10009342FBD1184A194B23F07F039360EFF304
:100B20001083B3FA83F35B09019372B6BFF35F8F4F
:100B30000022134B1A700199124A136843F4700390
:100B40001360BFF34F8FBFF36F8F29B101220C4B9E
:100B50001A70BFF35F8F62B60B4B98470B4B9847E9
:100B6000FEE700BF0000402004984000C00940207C
:100B7000480C4020C009402000ED00E0000040008B
:100B80000000402088ED00E0CD424000E13140000F
:100B90003B4B1B6B03F00303012B1DD083B1022BD6
:100BA00036D0374B1B6B03F07003702B5FD0344B88
:100BB0001A6B3449C2F302120B68D3400B607047C2
:100BC000314B5B6913F0800F14BF4FF400424FF4B8
:100BD000FA422C4B1A60E4E7294B1B6A13F0807F22
:100BE00003D02A4A274B1A60DBE7294A254B1A60B3
:100BF000234B1B6A03F07003102B05D0202BD0D1A0
:100C0000224A204B1A60CCE7224A1E4B1A60C8E7E2
:100C10001B4B1B6A13F0807F16D01C4A194B1A60BD
:100C2000174B1B6B03F00303022BBAD1144A916AD2
:100C3000926A1448C1F30A41036801FB0333D2B23C
:100C4000B3FBF2F30360ACE7114A0E4B1A600C4B96
:100C50001B6A03F07003102B05D0202BE0D10B4A48
:100C6000084B1A60DCE70B4A064B1A60D8E7054AC6
:100C700013680949A1FB03135B081360704700BFA9
:100C800000060E400400402010180E40001BB70064
:100C900000093D0000127A00ABAAAAAA164B98429E
:100CA00013D9164B984215D9154B984216D9154BA6
:100CB000984217D9144B984218D9144B984294BFB4
:100CC000134A144A144B1A6070474FF08062124B5B
:100CD0001A607047114A104B1A607047104A0E4B49
:100CE0001A6070470F4A0C4B1A6070474FF004228D
:100CF000094B1A60704700BFBFF35E017FE7BD027A
:100D00003FDB1C04FFCE7B05BFC2DA067FB6390885
:100D10000005000400060004000C0E400001000461
:100D200000020004000300040A4B1B6853B1094B86
:100D30001B681A180849914208DB1046054A1060E2
:100D400018467047054A034B1A60F0E74FF0FF3032
:100D5000704700BF500A4020FCFF4520482E40202D
:100D60004FF0FF3070474FF400534B600020704746
:100D7000012070470020704700F1080343604FF0E6
:100D8000FF328260C3600361002303607047002369
:100D90000361704743684B609A688A609A68516043
:100DA00099600861036801330360704730B40D68CF
:100DB000B5F1FF3F02D000F1080202E0026904E051
:100DC0001A4653681C68A542FAD253684B60996072
:100DD0008A605160086103680133036030BC70476A
:100DE00003694268816891608268416851605A680D
:100DF000904206D0002202611A68013A1A6018680F
:100E0000704782685A60F5E782B0002301930F4B68
:100E10001B68B3F1FF3F0AD04FF0800372B683F333
:100E20001188BFF36F8FBFF34F8F62B6FEE74FF0AD
:100E3000800372B683F31188BFF36F8FBFF34F8FB8
:100E400062B6019B002BFCD002B070470800402026
:100E500008480068006880F308884FF0000080F3BD
:100E6000148862B661B6BFF34F8FBFF36F8F00DF98
:100E700000BF000008ED00E0DFF80C00016841F45D
:100E8000700101607047000088ED00E04FF0807352
:100E900040F8043C21F0010140F8081C054B40F8E3
:100EA0000C3C40F8202C6FF0020340F8243C4438FE
:100EB000704700BF090E4000000000000000000065
:100EC000074B19680868B0E8F04F80F30988BFF352
:100ED0006F8F4FF0000080F311887047AFF30080F0
:100EE0005C0A40204FF0800372B683F31188BFF391
:100EF0006F8FBFF34F8F62B60B4A136801331360D5
:100F0000012B0FD1094B1B6813F0FF0F0AD04FF0D4
:100F1000800372B683F31188BFF36F8FBFF34F8FD7
:100F200062B6FEE7704700BF0800402004ED00E015
:100F30000A4B1B6853B94FF0800372B683F31188D4
:100F4000BFF36F8FBFF34F8F62B6FEE7013B034ADB
:100F500013600BB983F31188704700BF080040206D
:100F6000EFF30980BFF36F8F154B1A681EF0100F57
:100F700008BF20ED108A20E9F04F10602DE909002C
:100F80004FF0800072B680F31188BFF34F8FBFF32C
:100F90006F8F62B601F07CF94FF0000080F311888A
:100FA00009BC19680868B0E8F04F1EF0100F08BFC0
:100FB000B0EC108A80F30988BFF36F8F704700BFD1
:100FC0005C0A402008B54FF0800372B683F31188A5
:100FD000BFF36F8FBFF34F8F62B6054B984718B1C1
:100FE0004FF08052034B1A60002383F3118808BD31
:100FF000D51F400004ED00E0054B00221A600549B2
:101000000A600549054A116007221A60704700BF4F
:1010100010E000E018E000E0BF27090014E000E065
:1010200010B582B02E4B1A78D2B20192FF221A70FC
:101030001B78DBB28DF803309DF8033003F080039A
:10104000284A13700722284B1A609DF8033013F0CA
:10105000800F12D0062300E00B469DF803205200BB
:10106000D2B28DF803209DF80320591E12F0800F94
:10107000F2D11D4A1360042B0AD04FF0800372B6E0
:1010800083F31188BFF36F8FBFF34F8F62B6FEE714
:101090001B0203F4E063144A1360019BDBB2104AA5
:1010A0001370124B1A6842F460021A601A6842F018
:1010B00060421A600E4B984700240E4B1C600E4B8A
:1010C00098470E4A136843F0404313600C4B98470F
:1010D0000C4B98470C4B9847204602B010BD00BF00
:1010E00000E400E0540A4020580A402020ED00E0CF
:1010F000F90F400008004020790E400034EF00E076
:10110000510E400091224000090E4000EFF305838C
:101110000F2B11D9124A9B5CDBB2124A12789A4209
:101120000AD94FF0800372B683F31188BFF36F8F33
:10113000BFF34F8F62B6FEE70B4B1B6803F4E0630F
:101140000A4A126893420AD94FF0800372B683F3B9
:101150001188BFF36F8FBFF34F8F62B6FEE7704702
:10116000F0E300E0540A40200CED00E0580A402073
:1011700010B50446064B98472046064B9847044650
:10118000054B98470CB1204610BD044B9847FAE731
:10119000B91F40001D4340001D214000D12D4000DB
:1011A00048B110B50446044B98472046034B984776
:1011B000034B984710BD7047B91F40002D434000B6
:1011C0001D21400010B50446044B9847A46B044B06
:1011D0009847B4FA84F0400910BD00BFE50E400006
:1011E000310F400070B504461646856B026C52B94B
:1011F0000368002B2AD14068174B9847002363608F
:101200000135A56370BD6EB98068144B9847A3681B
:10121000226C1344A3606268934219D32368A360CD
:101220000020EDE7C0680D4B9847236C5B42E268F5
:101230001A44E26021688A4202D262681344E36081
:1012400045B1022E06D1013D0020D9E70020D7E7A5
:101250000020D5E70020D3E7152640009D48400038
:1012600070B582B00190846C74B1A26BE36B9A424A
:1012700015D34FF0800372B683F31188BFF36F8FDD
:10128000BFF34F8F62B6FEE74FF0800372B683F371
:101290001188BFF36F8FBFF34F8F62B6FEE7A26B6B
:1012A000934203D80026304602B070BD0A4694F837
:1012B00045506DB201A920460A4B98470646B5F144
:1012C000FF3F0AD1636A002BEDD004F12400064BE6
:1012D0009847002818BF0126E5E76B1C5BB284F82D
:1012E0004530E0E7E5114000E5234000026C72B1B3
:1012F00010B50346C4681444C4604068844201D3F6
:101300001868D8600846D968014B984710BD7047E7
:101310009D4840002DE9F0410546234B984795F83C
:10132000454064B2002C19DD204EDFF88C80204F40
:1013300008E06B6A93B105F12400B84760B9013C3D
:1013400064B25CB1AB6C002BF3D000212846B047EF
:101350000028F4D0C047F2E7C047F0E7FF2385F844
:101360004530144B9847104B984795F8444064B269
:10137000002C12DD2B6983B105F110070C4EDFF84C
:10138000388004E0013C64B23CB12B692BB1384693
:10139000B0470028F6D0C047F4E7FF2385F8443073
:1013A000044B9847BDE8F081E50E40006112400013
:1013B000E5234000310F40002925400038B530B307
:1013C00004460D461D4B98472268216CE36B03FBD6
:1013D00001F3D01860600020A063A2605B1A134480
:1013E000E360FF2384F8443084F84530D5B923699D
:1013F000FBB104F11000124B9847D0B14FF080526E
:10140000104B1A60BFF34F8FBFF36F8F11E04FF097
:10141000800372B683F31188BFF36F8FBFF34F8FD2
:1014200062B6FEE704F11000074DA84704F124005E
:10143000A847064B9847012038BD00BFE50E400085
:10144000E523400004ED00E0790D4000310F40003D
:10145000F8B550B94FF0800372B683F31188BFF32B
:101460006F8FBFF34F8F62B6FEE7064617460D46F5
:1014700001FB00F054300B4B9847044678B11DB186
:1014800000F15403036000E02060E663256401215D
:101490002046054B984784F850700023A3642046EB
:1014A000F8BD00BF71114000BD1340002DE9F04FA1
:1014B00085B00192B8B1044601B3022B2CD01E4670
:1014C0000F46694B9847002834D1019B002B39D037
:1014D0004FF0800372B683F31188BFF36F8FBFF3B1
:1014E0004F8F62B6FEE74FF0800372B683F3118828
:1014F000BFF36F8FBFF34F8F62B6FEE7026C002A17
:10150000DBD04FF0800372B683F31188BFF36F8F87
:10151000BFF34F8F62B6FEE7E26B012ACFD04FF0E8
:10152000800372B683F31188BFF36F8FBFF34F8FC1
:1015300062B6FEE70025DFF85C81DFF85CA1DFF82A
:10154000349141E00025F6E7324639462046474BC4
:101550009847A36C93B131462046454B984738B124
:101560004FF08052434B1A60BFF34F8FBFF36F8F22
:10157000414B9847012005B0BDE8F08F636A73B115
:1015800004F124003D4B98470028F1D04FF08052E1
:10159000384B1A60BFF34F8FBFF36F8FE8E7002817
:1015A000E6D04FF08052334B1A60BFF34F8FBFF33A
:1015B0006F8FDDE7304B98470020DCE72046304B4B
:1015C0009847304B98470125C047A26BE36B9A427E
:1015D000BAD3022EB8D0019B002BEBD00DB902A8D4
:1015E000D047254B9847284B9847C04794F844303C
:1015F0005BB2B3F1FF3F02D1002384F8443094F88A
:1016000045305BB2B3F1FF3F02D1002384F845308F
:10161000194B984701A902A81C4B9847E0B9C0474D
:10162000D4F838B0E56B144B9847AB45C6D1019957
:1016300004F11000164B98472046114B9847114B68
:1016400098470028BFD14FF08053C9F80030BFF34E
:101650004F8FBFF36F8FB6E72046094B9847094B72
:101660009847002087E700BF35254000E51140007E
:101670006112400004ED00E0310F4000E52340001E
:10168000151340001D214000B91F40009524400063
:1016900061234000E50E40007D2440002DE9F84321
:1016A000002839D00446002941D0022B4DD01F46D6
:1016B000904689463A4B9847EFF311864FF08003E6
:1016C00072B683F31188BFF36F8FBFF34F8F62B68B
:1016D000A26BE36B9A4201D3022F58D194F8455084
:1016E0006DB23A46494620462E4B9847B5F1FF3F2A
:1016F00047D1A36C002B36D0394620462A4B984759
:10170000B8F1000F45D0002843D00120C8F80000F0
:1017100086F31188BDE8F8834FF0800372B683F337
:101720001188BFF36F8FBFF34F8F62B6FEE7006C77
:101730000028BAD04FF0800372B683F31188BFF34C
:101740006F8FBFF34F8F62B6FEE7E06B0128AED01C
:101750004FF0800372B683F31188BFF36F8FBFF32E
:101760004F8F62B6FEE7636AABB104F124000F4B02
:101770009847B8F1000F10D078B10120C8F80000E8
:10178000C6E76B1C5BB284F845300120C0E700203F
:10179000BEE70120BCE70120BAE70120B8E700BF9F
:1017A0000D114000E511400061124000E5234000AA
:1017B0002DE9F04784B0019290B10446D9B10E46AC
:1017C000544B984728BB019B5BB34FF0800372B624
:1017D00083F31188BFF36F8FBFF34F8F62B6FEE7BD
:1017E0004FF0800372B683F31188BFF36F8FBFF39E
:1017F0004F8F62B6FEE7036C002BE0D04FF0800302
:1018000072B683F31188BFF36F8FBFF34F8F62B649
:10181000FEE70027DFF82881DFF828A1DFF8009134
:1018200031E00027F6E7314620463B4B9847013D23
:10183000A563236963B104F11000384B984738B1B0
:101840004FF08052364B1A60BFF34F8FBFF36F8F4C
:10185000344B9847012004B0BDE8F087314B9847DE
:101860000020F8E702A8D04716E0002384F84430AF
:101870001DE0002384F845301FE020462A4B98479E
:101880002A4B98470127C047A56B002DCBD1019B60
:10189000002BE3D0002FE5D0224B9847244B9847EC
:1018A000C04794F844305BB2B3F1FF3FDDD094F809
:1018B00045305BB2B3F1FF3FDBD01A4B984701A92B
:1018C00002A81C4B9847C8B920461B4B98470028D4
:1018D000D3D0019904F12400184B98472046124BAD
:1018E0009847124B98470028CCD14FF08053C9F845
:1018F0000030BFF34F8FBFF36F8FC3E720460A4B13
:1019000098470A4B984720460B4B98470028B9D078
:101910000020A0E735254000ED124000E5234000FF
:1019200004ED00E0310F4000151340001D21400080
:10193000B91F400095244000C511400061234000BC
:10194000E50E40007D2440002DE9F04385B0019173
:1019500068B10446036CABB14FF0800372B683F3F9
:101960001188BFF36F8FBFF34F8F62B6FEE74FF062
:10197000800372B683F31188BFF36F8FBFF34F8F6D
:1019800062B6FEE75E4B984760B9019B93B14FF09A
:10199000800372B683F31188BFF36F8FBFF34F8F4D
:1019A00062B6FEE700252F46564EDFF88C91DFF831
:1019B000608152E000252F46F6E7013BA3632368D0
:1019C00013B9514B98476060236963B104F110006B
:1019D0004E4B984738B14FF080524D4B1A60BFF3D1
:1019E0004F8FBFF36F8F4B4B98470125284605B0AB
:1019F000BDE8F08355B14FF0800372B683F31188D0
:101A0000BFF36F8FBFF34F8F62B6FEE7414B98472E
:101A1000ECE702A8C84729E0002384F8443030E00E
:101A2000002384F8453032E0B04760683A4B98476D
:101A30000546384B98473AE02046384B9847384B94
:101A4000984709E02046354B9847354B9847204644
:101A5000344B984700283FD10127B047A36B002B98
:101A6000ABD1019B002BC5D0002FD2D0294B98477A
:101A70002D4B9847B04794F844305BB2B3F1FF3F29
:101A8000CAD094F845305BB2B3F1FF3FC8D0214BC8
:101A9000984701A902A8254B98470028D2D1204693
:101AA000204B98470028C7D02368002BBCD0019951
:101AB00004F124001E4B98472046184B9847184BBA
:101AC00098470028C8D14FF08053C8F80030BFF3C2
:101AD0004F8FBFF36F8FBFE7002D87D0094B98471B
:101AE000636A53B1236B1968C1F105016068114B3A
:101AF0009847084B9847002578E70021F6E700BF94
:101B000035254000E50E40009D274000E5234000BC
:101B100004ED00E0310F4000552540001513400052
:101B20001D214000C5114000B91F40009524400010
:101B300061234000D12640007D24400010B40B4BAF
:101B40001B6853B10123094C54F8332032B10133DF
:101B5000082BF9D15DF8044B70470023034A42F883
:101B6000331002EBC3035860F4E700BFDC0B4020E6
:101B700070B504460D461646124B984794F844300B
:101B80005BB2B3F1FF3F0DD094F845305BB2B3F1D7
:101B9000FF3F0BD00C4B9847A36B5BB120460B4B20
:101BA000984770BD002384F84430EDE7002384F8A3
:101BB0004530EFE73246294604F12400044B9847AC
:101BC000ECE700BFE50E4000310F40001513400068
:101BD0009D234000084B1B681B683BB1064B1B68EC
:101BE000DB68DB685A68054B1A6070474FF0FF32BC
:101BF000024B1A60704700BF600A4020100B402063
:101C000070B504460E461C4B1D681C4B186804300A
:101C10001B4B984748B9194B1A681A490B68D06A88
:101C20000122824023EA02030B60B4F1FF3F00D19E
:101C30009EB92C44114B1B685C60A54214D8124B12
:101C400018680E4B19680431104B9847104B1B68ED
:101C50009C4201D20E4B1C6070BD084B19680431C8
:101C60000C480D4B984770BD0C4B1868034B196816
:101C70000431064B984770BD580B40205C0A402049
:101C8000E10D4000E00A4020600A4020AD0D400018
:101C9000100B4020300B4020950D4000640A40207E
:101CA00080B5184DDFF87880DFF8789001E0164BAA
:101CB00098472B68C3B1154F154EC047FB68DC68C9
:101CC000201DB047134A1368013B13602B68013B8A
:101CD0002B60114B9847206BDFF84CA0D047204673
:101CE000D0472B68002BE8D10C4B1B68012BDED9A9
:101CF0004FF08053C9F80030BFF34F8FBFF36F8FA1
:101D0000D5E700BFD00A4020CD2D4000440B402035
:101D1000E10D4000CC0A4020310F4000680A40200D
:101D2000E50E400004ED00E0A11140002DE9F04F68
:101D300083B083460D460193DDF834A0960030460B
:101D4000604B9847002800F08D80074658205D4B77
:101D500098470446002800F0828007633246A52198
:101D60003846594B9847043E236B1E4426F007061D
:101D70002B7884F834302B7863B12B4604F134028D
:101D800005F10901587802F8010F13F8010F08B1A5
:101D90008B42F7D1002784F83D700C9D042D28BF9D
:101DA0000425E562A564E76404F104084046DFF811
:101DB0006C91C84704F11800C8472461C5F10505B6
:101DC000A5616462276584F85470019A59463046CB
:101DD0003E4B98472060BAF1000F01D0CAF800408E
:101DE0003B4B98473B4A1368013313603A4B1B68DF
:101DF000002B3AD0394B1B683BB9374B1B68DA6A6A
:101E0000E36A9A4201D8344B1C60354A13680133A7
:101E100013602364E06A334A1168012383400B4353
:101E2000136000EB800041462F4B03EB80002F4BEB
:101E300098472F4B9847294B1B68002B3BD0264BCC
:101E40001B68DA6AE36A9A4239D24FF08052294B12
:101E50001A60BFF34F8FBFF36F8F01202CE038461D
:101E6000254B98474FF0FF3026E01B4B1C60136852
:101E7000012BCAD11C4E3046204DA84706F1140054
:101E8000A84706F12800A84706F13C00A84706F13C
:101E90005000A8471A4F3846A8471A4E3046A84760
:101EA0001948A8471948A8471948A847194B1F605F
:101EB000194B1E60A9E7012003B0BDE8F08F012097
:101EC000FAE700BF71114000D14940008D0E40007B
:101ED000E50E4000CC0A40205C0A40202C0B40203C
:101EE000DC0A4020E00A4020680A4020950D4000AE
:101EF000310F400004ED00E0A1114000790D4000D9
:101F0000E40A4020F80A4020180B4020440B4020EF
:101F1000300B4020600A4020640A40208F0D4000B2
:101F200010B582B01B4B0193002300934FF4006265
:101F300019491A481A4CA047012804D0B0F1FF3FB4
:101F40001CD002B010BD174B98470128F6D14FF0B6
:101F5000800372B683F31188BFF36F8FBFF34F8F87
:101F600062B64FF0FF32104B1A6001220F4B1A601D
:101F700000220F4B1A600F4B9847E2E74FF08003A7
:101F800072B683F31188BFF36F8FBFF34F8F62B6C2
:101F9000FEE700BF0C0B40206C934000A11C4000EA
:101FA0002D1D400075284000100B40202C0B4020B8
:101FB000580B402021104000024A1368013313607F
:101FC000704700BFD80A4020014B1868704700BF17
:101FD000580B40202DE9F047414B1B68002B77D16F
:101FE000404B1D6801351D60D5B93F4B1B681B6810
:101FF00053B14FF0800372B683F31188BFF36F8F34
:10200000BFF34F8F62B6FEE7374A1168374B186847
:1020100010601960364A136801331360354B9847D6
:10202000354B1B689D4218D20024344B1B68DB6A79
:1020300003EB83039B00324AD358022B28BF0124B1
:10204000304B1B680BB9304B9847304B1B68002B4B
:102050000CBF20460120BDE8F0870024DFF88890FF
:10206000DFF8B4802A4F1FE04FF0FF32224B1A6096
:10207000DBE7214A1360D8E706F11800C047F06A91
:102080003A680123834013433B6000EB80005146D4
:102090001B4B03EB80001F4B9847184B1B68F26AE1
:1020A000DB6A9A4228BF0124D9F800301B68002B54
:1020B000DAD0D9F80030DB68DE6873689D42D8D387
:1020C00006F1040A5046C047B36A002BD4D1D6E7C4
:1020D0000C4A1368013313600B4B98470024B4E794
:1020E000D80A4020580B4020600A4020640A402053
:1020F000140B4020D51B4000100B40205C0A4020F0
:10210000680A4020D40A4020CF2D40005C0B4020BC
:10211000E00A4020950D4000E10D4000364B1B6861
:1021200053B94FF0800372B683F31188BFF36F8FFA
:10213000BFF34F8F62B6FEE72DE9F0412F4B984772
:102140002D4B1A68013A1A601B68002B50D12C4B9A
:102150001B682BB900242B4B98472046BDE8F08123
:102160000024294F294E2A4D3B6803B3FB68DC68E5
:1021700004F11800B04704F104084046B047E06A93
:102180002A680123834013432B6000EB8000414603
:10219000204B03EB8000204B9847204B1B68E26AE2
:1021A000DB6A9A42E0D301221D4B1A60DCE70CB1D6
:1021B0001C4B98471C4B1C686CB11C4F184E0125DA
:1021C00001E0013C04D0B8470028FAD03560F8E7B8
:1021D0000022154B1A60124B1B685BB14FF0805206
:1021E000134B1A60BFF34F8FBFF36F8F0124B2E719
:1021F0000024B0E70024AEE7D80A4020E50E4000F6
:10220000CC0A4020310F4000180B4020E10D400067
:10221000E00A4020680A4020950D40005C0A4020FA
:102220005C0B4020D51B4000D40A4020D51F400045
:1022300004ED00E010B5B8B10446104B1B6853B173
:102240004FF0800372B683F31188BFF36F8FBFF333
:102250004F8F62B6FEE70A4B984700212046094B94
:102260009847094B984738B94FF08052074B1A608E
:10227000BFF34F8FBFF36F8F10BD00BFD80A402050
:10228000B91F4000011C40001D21400004ED00E08A
:102290002D4B1B68002B2CD110B500222B4B1A6044
:1022A0002B4B1B681B6B1A68B2F1A53F03D15A6810
:1022B000B2F1A53F21D0264B186819683431254B5F
:1022C0009847254B1B68B3FA83F3DBB2C3F11F03B6
:1022D00003EB8302920021498A58BAB94FF0800378
:1022E00072B683F31188BFF36F8FBFF34F8F62B65F
:1022F000FEE70122154B1A6070479A68B2F1A53FBC
:10230000D9D1DB68B3F1A53FD5D1DAE7134A9900FB
:10231000C81802EB800044686468446019440246AF
:102320000832944209D003EB83030C4A02EB830387
:102330005B68DA68064B1A6010BD6068074A02EBFA
:1023400081025060EFE700BFD80A40205C0B4020BC
:102350005C0A4020B52D4000E00A4020680A402079
:1023600050B94FF0800372B683F31188BFF36F8FBB
:10237000BFF34F8F62B6FEE710B50C46044B1968E9
:102380001831044B984701212046034B984710BD54
:102390005C0A4020AD0D4000011C400038B578B10A
:1023A00014460D460C4B196818310C4B9847002CFD
:1023B00021460CBF28464FF0FF30094B984738BDE7
:1023C0004FF0800372B683F31188BFF36F8FBFF3B2
:1023D0004F8F62B6FEE700BF5C0A4020950D4000BB
:1023E000011C400038B5C368DC6824B304F118054B
:1023F00028461A4B98471A4B1B683BBB251D28469D
:10240000164B9847E06A174A1168012383400B4333
:10241000136000EB80002946134B03EB8000134B45
:102420009847134B1B68E26ADB6A9A4213D9012072
:10243000104B186038BD4FF0800372B683F31188DB
:10244000BFF36F8FBFF34F8F62B6FEE729460A488E
:10245000064B9847E5E7002038BD00BFE10D40007E
:10246000D80A4020E00A4020680A4020950D40002C
:102470005C0A40205C0B4020180B4020034B1B687B
:102480000360034B1B684360704700BF140B402080
:10249000580B4020A8B170B50546E9B10C461D4B5C
:1024A00098471D4B1A6869682368B3F1FF3F2FD026
:1024B0001A4800682E68864219D08A4217D3012430
:1024C0001BE04FF0800372B683F31188BFF36F8F68
:1024D000BFF34F8F62B6FEE74FF0800372B683F30F
:1024E0001188BFF36F8FBFF34F8F62B6FEE7521AAA
:1024F0009A4206D3002323600124094B98472046C3
:1025000070BD9B1A23602846064B98470024F4E7C9
:102510000024F2E7E50E4000580B4020140B402049
:10252000310F40007D2440000122014B1A607047AA
:102530005C0B4020054B1B6833B1054B1B68002B1F
:102540000CBF022000207047012070472C0B402058
:10255000D80A4020002850D038B50446C26A28491D
:102560000968C96A8A423FD28169002905DB24498A
:102570000968C96AC1F10501816102EB8202214942
:1025800001EB82026169914205D01D4A1268D26A4C
:10259000E262012038BD251D28461B4B984770B9C3
:1025A000E26A02EB82039B001649CB583BB91748FD
:1025B0000368012101FA02F223EA02020260104BD1
:1025C0001B68D86AE062114A1168012404FA00F31A
:1025D0000B43136000EB800029460A4B03EB80009D
:1025E0000B4B9847204638BD054A1268806CD36A69
:1025F00098422CBF0020012038BD0020704700BF4A
:102600005C0A4020680A4020E10D4000E00A4020BA
:10261000950D400000284DD038B50446274A126871
:1026200090420AD04FF0800372B683F31188BFF353
:102630006F8FBFF34F8F62B6FEE7C26C52B94FF097
:10264000800372B683F31188BFF36F8FBFF34F8F90
:1026500062B6FEE7013AC264C06AA16C88422BD020
:1026600052BB251D2846164B984768B9E16A01EB15
:1026700081039B00134AD35833B9134803680122DE
:102680008A4023EA02030360A06CE062C0F1050304
:10269000A3610D4A1168012404FA00F30B4313608F
:1026A00000EB80002946074B03EB8000074B98475F
:1026B000204638BD00207047002038BD5C0A40200D
:1026C000E10D4000680A4020E00A4020950D4000DE
:1026D000002858D038B50446C06C50B94FF080037C
:1026E00072B683F31188BFF36F8FBFF34F8F62B65B
:1026F000FEE7A26C8A4238BF0A46E16A012841D14E
:1027000091423FD02048006884420AD14FF08003B4
:1027100072B683F31188BFF36F8FBFF34F8F62B62A
:10272000FEE7E262A069002802DBC2F10502A261B5
:1027300001EB8101154A02EB810162698A4221D1D4
:10274000251D2846124B984768B9E16A01EB8103C1
:102750009B000E4AD35833B90E48036801228A40C1
:1027600023EA02030360E06A0A4A116801238340F6
:102770000B43136000EB80002946044B03EB800001
:10278000054B984738BD70475C0A4020680A4020D6
:10279000E10D4000E00A4020950D4000054B1B680C
:1027A00023B1044B1A68D36C0133D364014B18680E
:1027B000704700BF5C0A402008B54160006191424B
:1027C0000CD8D21A83699A4201D3012008BD011D99
:1027D000094B1868094B9847002008BD9A4203D25C
:1027E000994201D3012008BD011D054B1868034B18
:1027F0009847002008BD00BF640B4020AD0D40008D
:10280000600B402070B5104B9847104B1B6813B1FC
:102810000F4B984770BD0F4D28460F4EB0470F4CD9
:102820002046B0470E4B1D600E4B1C60002210214D
:1028300005200D4B9847054B18600028E8D00B4940
:102840000B4B9847E4E700BFE50E4000940B402097
:10285000310F4000680B4020790D40007C0B402078
:10286000600B4020640B40205114400074934000E2
:102870003D1B400010B582B00E4B98470E4B1B68B5
:102880006BB10E4B01930423009300234FF480524D
:102890000B490C480C4CA04708B102B010BD4FF0DA
:1028A000800372B683F31188BFF36F8FBFF34F8F2E
:1028B00062B6FEE705284000940B4020980B4020AC
:1028C0007C934000F52940002D1D4000D8B130B563
:1028D00085B015460446154A106820B31A46009183
:1028E00001950294052919DC114B984702284FF0F5
:1028F00000030CBF089A1A4669460C4800680D4C44
:10290000A04705B030BD4FF0800372B683F3118845
:10291000BFF36F8FBFF34F8F62B6FEE700236946A8
:10292000054CA047EDE70020EBE700BF940B4020EB
:1029300035254000AD1440009D1640002DE9F047BC
:1029400082B08046244B98470746244B1B68984228
:102950001BD30023C8F80030204B1F60384602B05C
:10296000BDE8F087002100910B46524620461C4CE2
:10297000A04760B94FF0800372B683F31188BFF3AC
:102980006F8FBFF34F8F62B6FEE7164D164E2B6862
:102990001A68C2B1DB68D3F800A0DC6804F104094E
:1029A0004846B047636A20469847E369012BEED159
:1029B000A36953449A45D5D2636024614946286887
:1029C0000A4B9847E3E70A4A106806490860136013
:1029D0000123C8F80030BFE7C91F4000900B40201A
:1029E000CD284000600B4020E10D4000AD0D4000BF
:1029F000640B40202DE9F04788B0754E754FDFF825
:102A0000FC91DFF8FC8133681A68002A00F0CE8060
:102A1000DB681C68B84704A86F4B98470546049BC1
:102A2000002B44D1A04212D20022611B6B4B1868CC
:102A30006B4B98476B4B984700283AD14FF0805327
:102A4000C9F80030BFF34F8FBFF36F8F31E0654B94
:102A500098473368DB68D3F80CA00AF10400C0473C
:102A6000DAF81C30012B04D0DAF8243050469847AD
:102A70001FE0DAF8181023462A46214450465A4DE2
:102A8000A8470028F0D0002100910B46224650466E
:102A9000564CA0470028E7D14FF0800372B683F36D
:102AA0001188BFF36F8FBFF34F8F62B6FEE74D4BB8
:102AB00098474A4D4E4C06E007990698059B984763
:102AC000049B002B08DA002204A92868A0470028EC
:102AD00099D0049B002BEFDBDDF818A0DAF8143056
:102AE00013B10AF10400C04703A83B4B9847049B6D
:102AF000092BE8D801A252F823F000BF252B400093
:102B0000252B4000252B4000C72A4000792B400090
:102B1000A52B4000252B4000252B4000C72A400054
:102B2000792B4000059CDAF8181023460246214410
:102B300050462D4CA0470028BCD0DAF8243050462F
:102B40009847DAF81C30012BB4D1DAF818200021AC
:102B500000910B46059802445046244CA04700289B
:102B6000A8D14FF0800372B683F31188BFF36F8F43
:102B7000BFF34F8F62B6FEE70599CAF8181031B15E
:102B80000346024601445046174CA04792E74FF0D7
:102B9000800372B683F31188BFF36F8FBFF34F8F3B
:102BA00062B6FEE75046134B984783E7B84704A840
:102BB000094B98470546049B002B7FF478AF0E4BDA
:102BC0001B681A68B2FA82F2520900242DE700BF8E
:102BD000600B4020B91F40003D294000940B40206D
:102BE000711B40001D214000B9274000CD28400046
:102BF000B1174000A1114000640B402004ED00E03B
:102C0000E10D4000F0B583B005460C46002301936A
:102C10002A4B984213D02A4B984218D0294B9842FD
:102C20001DD0294B9D4222D0284B9D4227D0284BB6
:102C30009D422ED0274B9D4235D003B0F0BD1F469C
:102C4000254E21463846B0470028FAD1E9E71F460D
:102C5000214E21463846B0470028FAD1E4E71F4606
:102C60001D4E21463846B0470028FAD1DFE71F46FF
:102C7000194E21463846B0470028FAD1DAE71E46F9
:102C8000164D01A93046A8470028FAD1019B2370B0
:102C9000D3E71E46114D01A93046A8470028FAD1B6
:102CA000019B2370C9E71E460C4D01A93046A84779
:102CB0000028FAD1019B2370BFE700BF00080E4037
:102CC000000A0E40001A0E40001C0E400040024058
:102CD0000080024000C00240A3094000AF0A40004B
:102CE00070B50C462A4B984213D02A4B984219D003
:102CF000294B98421FD0294B984225D0284B984207
:102D00002BD0284B984231D0274B984237D0002007
:102D100070BD1E46254D21463046A8470028FAD1F1
:102D2000012070BD1E46214D21463046A84700288F
:102D3000FAD1012070BD1E461C4D21463046A847E1
:102D40000028FAD1012070BD1E46184D214630469C
:102D5000A8470028FAD1012070BD1E46144D214617
:102D60003046A8470028FAD1012070BD1E46104DFC
:102D700021463046A8470028FAD1012070BD1E46E2
:102D80000B4D21463046A8470028FAD1012070BDDE
:102D900000080E40000A0E40001A0E40001C0E40B3
:102DA000004002400080024000C002409109400003
:102DB000990A400008B50A4601460248024B984766
:102DC000FEE700BF2C954000854A400070477047E1
:102DD0004FF0800372B683F31188BFF36F8FBFF398
:102DE0004F8F62B6FEE7000038B504460D46064B2D
:102DF000984720B929462046044B984738BD2946B4
:102E00002046034B984738BD270540006504400025
:102E10006904400080B50B4E0B4D0C4F4FF0FF3452
:102E200021463068A8470028FAD04FF48071384610
:102E3000074CA047C820074B98474FF4807138468D
:102E4000A047EBE71C0C40204919400000120E403F
:102E5000E92D40003522400030B585B029200E4CC8
:102E6000A0470E4B019349F64043029301A90C4839
:102E70000C4B98471020A0470B4D4FF080524FF05D
:102E8000C0512846094CA0474FF000624FF0C05196
:102E90002846A04705B030BD1107400000A3E1114E
:102EA00000000640E107400000140E406D044000A1
:102EB00000B587B08DF814008DF80410012102913F
:102EC0000392049301A90348034B984740B207B00B
:102ED0005DF804FB00000640C308400000B587B061
:102EE0008DF814008DF804100121029103920493CF
:102EF00001A90348034B984740B207B05DF804FBB3
:102F000000000640150840002DE9F0472DED028B2A
:102F10008AB0874B984768218648874B9847C0B24C
:102F2000002838D08548864B9847012307AA752189
:102F30006820844CA047002831D19DF81C106829D6
:102F40000CBF81488148824B984701230AAA02F8A6
:102F5000183D6B2168207F4CA04720BB0AAA0023A4
:102F600002F8183D01231C2168207A4CA047F0B9D3
:102F70000AAA002302F8183D01231B216820754C82
:102F8000A047C0B901264FF068086E4F4FF04009C6
:102F9000DFED718A1BE07148694B9847C5E77048BF
:102FA000674B9847D1E76F48654B9847D6E76D4820
:102FB000634B9847DCE76B48614B9847E2E717EEB5
:102FC000900A694B98478DE03046684B98473346E6
:102FD0000DF10F023B214046B847334603AA3C217E
:102FE0004046B84733460DF10E023D214046B847F2
:102FF00033460DF10B0249464046B84733460DF1C2
:103000000D023F214046B84733460DF10A024946BA
:103010004046B8479DF80F209DF80C3043EA022344
:103020000FFA83FA9DF80E209DF80B3043EA022335
:103030001DB29DF80D209DF80A3043EA02231CB210
:1030400033460DF1090243214046B84733460DF19E
:10305000060244214046B847334602AA452140466D
:10306000B84733460DF1050248214046B84733467C
:103070000DF1070247214046B847334601AA4821CF
:103080004046B8479DF809309DF806309DF8083055
:103090009DF805309DF807309DF8043007EE90AAA2
:1030A000B8EEE76A26EE286A07EE905AF8EEE76A6D
:1030B00066EEA86A07EE904AB8EEE77A27EE287A1D
:1030C00066EE067A66EEA66A77EEA67A27EE077AAD
:1030D00077EE877AB1EEE78AF5EE407AF1EE10FAF4
:1030E0003FF56DAF18EE100A214B98470EA3D3E9B8
:1030F0000023204CA047204B984707EE900AB0EEE3
:10310000E77AF0EE007AB4EEE77AF1EE10FA7FF7A4
:103110005BAF00231A46194618480068184CA047B0
:1031200052E700BFAFF300801F85EB51B89E2340EC
:10313000592E400000000640650940008094400080
:10314000494B4000DD2E4000C8944000F094400000
:10315000854A4000B12E400000008038989440001D
:10316000B0944000149540006D334000352240007B
:1031700081374000C13440004D3C40001C0C4020D1
:10318000AD14400010B582B004460C20054B9847A2
:103190000023009322464FF480710348034CA0475C
:1031A00002B010BD1107400000120E40FF044000A5
:1031B00008B50120064B9847064E074D074C4FF4C3
:1031C00080713046A8474FF47A70A047F7E700BFF8
:1031D0008531400000120E40E92D400035224000AC
:1031E00070B588B03C4B98473C4B98473C4D3D4BA5
:1031F0001D603D4A3D4B1A603D4A3E4B1A604FF4FC
:10320000E1330293C02303934FF40063049300243B
:10321000059406940E20384B9847384A02A9284650
:10322000374B98472846374B98472846364B9847A0
:10323000364E336821469868354DA8473368214695
:103240005868A847336821469868A8473148324DE6
:10325000A84732493248A847324A33493348A84739
:10326000032221460120324B9847324B1860002838
:103270002ED00023019300934FF480722E492F48E3
:103280002F4CA047012802D02E482F4B98470023EF
:10329000019300934FF480722C492D48284CA0478D
:1032A000012802D02B48284B984700230193009314
:1032B0004FF4807228492948214CA047012802D0A8
:1032C0002748214B9847274B9847002008B070BDEE
:1032D00025481D4B9847CCE7D5014000D10240005E
:1032E00000800240D80B4020E12C4000D40B40204D
:1032F000052C4000D00B40201107400080D1F00881
:10330000390A40008D0A4000930A40001000402016
:103310007D4B400084934000854A4000A0934000CC
:10332000AC934000B4934000C0934000CC93400065
:10333000511440001C0C402004944000152E400005
:103340002D1D400010944000494B4000389440002F
:10335000B13140003C9440005C944000092F400093
:1033600060944000211F4000E4934000F0B58BB012
:10337000044600F04BF8234B93F900506B1C0646B3
:103380000AD02146204600F085FF074620B90021DB
:10339000204600F057FF10B930460BB0F0BD1A4B75
:1033A0000897012220468DE80C0000F0E9F9002280
:1033B000CDE90401CDE902010023ADB11046194663
:1033C00000F05CFB022DCDE906010FD100F078FF83
:1033D00021230360089B7BB9DDE9060100F036FC80
:1033E000064630460BB0F0BDCDE90623684600F036
:1033F00061F80028EED1E9E700F062FF089B036066
:10340000EAE700BF0C0040204495400020F0004255
:10341000B2F1FF4FF8B504462ED262B3002803463E
:103420003DDBB2F5000F4FEAE0502CD37F38C3F3F9
:10343000160343F40003C20748BF5B000026471091
:103440005B00314619244FF080728D189D4202DCDA
:103450005B1BA9181644013C4FEA43034FEA520292
:10346000F3D113B1013626F00106701000F17C5043
:1034700000EBC750F8BDF8BD014600F045FD214600
:1034800000F03AFCF8BD14F4000201D00EE00A4648
:103490005B001C0202F10101F9D5801AC6E7014662
:1034A00000F028FC014600F0E3FDF8BD4FF0FF32CC
:1034B000F3E700BF0020704781F0004102E000BF49
:1034C00083F0004330B54FEA41044FEA430594EAE4
:1034D000050F08BF90EA020F1FBF54EA000C55EA1F
:1034E000020C7FEA645C7FEA655C00F0E2804FEAF0
:1034F0005454D4EB5555B8BF6D420CDD2C4480EAD2
:10350000020281EA030382EA000083EA010180EA01
:10351000020281EA0303362D88BF30BD11F0004F4F
:103520004FEA01314FF4801C4CEA113102D0404285
:1035300061EB410113F0004F4FEA03334CEA1333C0
:1035400002D0524263EB430394EA050F00F0A780D8
:10355000A4F10104D5F1200E0DDB02FA0EFC22FAD3
:1035600005F2801841F1000103FA0EF2801843FAC7
:1035700005F359410EE0A5F120050EF1200E012AB8
:1035800003FA0EFC28BF4CF0020C43FA05F3C018F6
:1035900051EBE37101F0004507D54FF0000EDCF16F
:1035A000000C7EEB00006EEB0101B1F5801F1BD318
:1035B000B1F5001F0CD349085FEA30004FEA3C0C1C
:1035C00004F101044FEA445212F5800F80F09A8012
:1035D000BCF1004F08BF5FEA500C50F1000041EB16
:1035E000045141EA050130BD5FEA4C0C404141EB1A
:1035F000010111F4801FA4F10104E9D191F0000F41
:1036000004BF01460020B1FA81F308BF2033A3F1C3
:103610000B03B3F120020CDA0C3208DD02F1140CBA
:10362000C2F10C0201FA0CF021FA02F10CE002F1F5
:103630001402D8BFC2F1200C01FA02F120FA0CFCEE
:10364000DCBF41EA0C019040E41AA2BF01EB045137
:10365000294330BD6FEA04041F3C1CDA0C340EDC35
:1036600004F11404C4F1200220FA04F001FA02F378
:1036700040EA030021FA04F345EA030130BDC4F136
:103680000C04C4F1200220FA02F001FA04F340EA2B
:103690000300294630BD21FA04F0294630BD94F0DC
:1036A000000F83F4801306BF81F480110134013DC3
:1036B0004EE77FEA645C18BF7FEA655C29D094EA34
:1036C000050F08BF90EA020F05D054EA000C04BFB2
:1036D0001946104630BD91EA030F1EBF002100209D
:1036E00030BD5FEA545C05D14000494128BF41F03C
:1036F000004130BD14F580043CBF01F5801130BDA0
:1037000001F0004545F0FE4141F470014FF000002A
:1037100030BD7FEA645C1ABF194610467FEA655CDB
:103720001CBF0B46024650EA013406BF52EA03357D
:1037300091EA030F41F4002130BD00BF90F0000F6B
:1037400004BF0021704730B54FF4806404F13204A7
:103750004FF000054FF0000150E700BF90F0000F60
:1037600004BF0021704730B54FF4806404F1320487
:1037700010F0004548BF40424FF000013EE700BF57
:1037800042004FEAE2014FEA31014FEA02701FBFE7
:1037900012F07F4393F07F4F81F06051704792F0B9
:1037A000000F14BF93F07F4F704730B54FF4607433
:1037B00001F0004521F0004120E700BF50EA01027E
:1037C00008BF704730B54FF000050AE050EA01022B
:1037D00008BF704730B511F0004502D5404261EB9B
:1037E00041014FF4806404F132045FEA915C3FF4DC
:1037F000DCAE4FF003025FEADC0C18BF03325FEA75
:10380000DC0C18BF033202EBDC02C2F1200300FA29
:1038100003FC20FA02F001FA03FE40EA0E0021FA4E
:1038200002F11444C1E600BF70B54FF0FF0C4CF438
:10383000E06C1CEA11541DBF1CEA135594EA0C0FEE
:1038400095EA0C0F00F0DEF82C4481EA030621EA29
:103850004C5123EA4C5350EA013518BF52EA033564
:1038600041F4801143F4801338D0A0FB02CE4FF016
:103870000005E1FB02E506F00042E0FB03E54FF046
:103880000006E1FB03569CF0000F18BF4EF0010E3E
:10389000A4F1FF04B6F5007F64F5407404D25FEA3A
:1038A0004E0E6D4146EB060642EAC62141EA5551ED
:1038B0004FEAC52040EA5E504FEACE2EB4F1FD0C2F
:1038C00088BFBCF5E06F1ED8BEF1004F08BF5FEAAD
:1038D000500E50F1000041EB045170BD06F000465F
:1038E00046EA010140EA020081EA0301B4EB5C040C
:1038F000C2BFD4EB0C0541EA045170BD41F4801104
:103900004FF0000E013C00F3AB8014F1360FDEBF28
:10391000002001F0004170BDC4F10004203C35DA04
:103920000C341BDC04F11404C4F1200500FA05F387
:1039300020FA04F001FA05F240EA020001F0004228
:1039400021F0004110EBD37021FA04F642EB06019E
:103950005EEA430E08BF20EAD37070BDC4F10C04C8
:10396000C4F1200500FA04F320FA05F001FA04F28C
:1039700040EA020001F0004110EBD37041F1000178
:103980005EEA430E08BF20EAD37070BDC4F1200583
:1039900000FA05F24EEA020E20FA04F301FA05F2EB
:1039A00043EA020321FA04F001F0004121FA04F293
:1039B00020EA020000EBD3705EEA430E08BF20EA63
:1039C000D37070BD94F0000F0FD101F0004640009D
:1039D00041EB010111F4801F08BF013CF7D041EA1F
:1039E000060195F0000F18BF704703F00046520023
:1039F00043EB030313F4801F08BF013DF7D043EAF4
:103A00000603704794EA0C0F0CEA135518BF95EAA9
:103A10000C0F0CD050EA410618BF52EA4306D1D130
:103A200081EA030101F000414FF0000070BD50EA4F
:103A3000410606BF1046194652EA430619D094EAD9
:103A40000C0F02D150EA013613D195EA0C0F05D1C3
:103A500052EA03361CBF104619460AD181EA030117
:103A600001F0004141F0FE4141F470014FF00000CF
:103A700070BD41F0FE4141F4780170BD70B54FF06A
:103A8000FF0C4CF4E06C1CEA11541DBF1CEA1355EA
:103A900094EA0C0F95EA0C0F00F0A7F8A4EB0504CC
:103AA00081EA030E52EA03354FEA013100F08880C3
:103AB0004FEA03334FF0805545EA131343EA12638C
:103AC0004FEA022245EA111545EA10654FEA002641
:103AD0000EF000419D4208BF964244F1FD0404F5FA
:103AE000407402D25B084FEA3202B61A65EB030556
:103AF0005B084FEA32024FF480104FF4002CB6EB13
:103B0000020E75EB030E22BFB61A754640EA0C0092
:103B10005B084FEA3202B6EB020E75EB030E22BFD2
:103B2000B61A754640EA5C005B084FEA3202B6EB13
:103B3000020E75EB030E22BFB61A754640EA9C00D2
:103B40005B084FEA3202B6EB020E75EB030E22BFA2
:103B5000B61A754640EADC0055EA060E18D04FEA60
:103B6000051545EA16754FEA06164FEAC30343EA00
:103B700052734FEAC2025FEA1C1CC0D111F4801FCD
:103B80000BD141EA00014FF000004FF0004CB6E7C6
:103B900011F4801F04BF01430020B4F1FD0C88BF65
:103BA000BCF5E06F3FF6AFAEB5EB030C04BFB6EB70
:103BB000020C5FEA500C50F1000041EB045170BD63
:103BC0000EF0004E4EEA113114EB5C04C2BFD4EB90
:103BD0000C0541EA045170BD41F480114FF0000E14
:103BE000013C90E645EA060E8DE60CEA135594EA90
:103BF0000C0F08BF95EA0C0F3FF43BAF94EA0C0F93
:103C00000AD150EA01347FF434AF95EA0C0F7FF407
:103C100025AF104619462CE795EA0C0F06D152EA5B
:103C200003353FF4FDAE1046194622E750EA41063F
:103C300018BF52EA43067FF4C5AE50EA41047FF450
:103C40000DAF52EA43057FF4EBAE12E74FEA4102B3
:103C5000B2F1E04324BFB3F5001CDCF1FE5C0DD9EA
:103C600001F0004C4FEAC0024CEA5070B2F1004F34
:103C700040EB830008BF20F00100704711F0804F37
:103C800021D113F13872BCBF01F00040704741F4FC
:103C900080114FEA5252C2F11802C2F1200C10FA00
:103CA0000CF320FA02F018BF40F001004FEAC123E4
:103CB0004FEAD32303FA0CFC40EA0C0023FA02F388
:103CC0004FEA4303CCE77FEA625307D150EA01335E
:103CD0001EBF4FF0FE4040F44000704701F000402E
:103CE00040F0FE4040F40000704700BF80F000400C
:103CF00002E000BF81F0004142001FBF5FEA4103C4
:103D000092EA030F7FEA226C7FEA236C6AD04FEAC3
:103D10001262D2EB1363C1BFD21841404840414008
:103D2000B8BF5B42192B88BF704710F0004F40F4BA
:103D3000000020F07F4018BF404211F0004F41F4D6
:103D4000000121F07F4118BF494292EA030F3FD0A2
:103D5000A2F1010241FA03FC10EB0C00C3F12003B5
:103D600001FA03F100F0004302D5494260EB400044
:103D7000B0F5000F13D3B0F1807F06D340084FEAAF
:103D8000310102F10102FE2A51D2B1F1004F40EBA4
:103D9000C25008BF20F0010040EA0300704749000C
:103DA00040EB000010F4000FA2F10102EDD1B0FAD7
:103DB00080FCACF1080CB2EB0C0200FA0CF0AABFCC
:103DC00000EBC25052421843BCBFD040184370476A
:103DD00092F0000F81F4000106BF80F40000013270
:103DE000013BB5E74FEA41037FEA226C18BF7FEA47
:103DF000236C21D092EA030F04D092F0000F08BF89
:103E00000846704790EA010F1CBF0020704712F06F
:103E10007F4F04D1400028BF40F00040704712F1AE
:103E200000723CBF00F50000704700F0004343F013
:103E3000FE4040F4000070477FEA226216BF084649
:103E40007FEA23630146420206BF5FEA412390EA0C
:103E5000010F40F4800070474FF0000304E000BF02
:103E600010F0004348BF40425FEA000C08BF7047B3
:103E700043F0964301464FF000001CE050EA010277
:103E800008BF70474FF000030AE000BF50EA01028C
:103E900008BF704711F0004302D5404261EB410179
:103EA0005FEA010C02BF84460146002043F0B6439E
:103EB00008BFA3F18053A3F50003BCFA8CF2083AC3
:103EC000A3EBC25310DB01FA02FC634400FA02FCCC
:103ED000C2F12002BCF1004F20FA02F243EB0200D3
:103EE00008BF20F00100704702F1200201FA02FC35
:103EF000C2F1200250EA4C0021FA02F243EB020028
:103F000008BF20EADC7070474FF0FF0C1CEAD0526B
:103F10001EBF1CEAD15392EA0C0F93EA0C0F6FD02C
:103F20001A4480EA010C400218BF5FEA41211ED00A
:103F30004FF0006343EA501043EA5111A0FB0131F6
:103F40000CF00040B1F5000F3EBF490041EAD371CB
:103F50005B0040EA010062F17F02FD2A1DD8B3F147
:103F6000004F40EBC25008BF20F00100704790F0B6
:103F7000000F0CF0004C08BF49024CEA502040EA08
:103F800051207F3AC2BFD2F1FF0340EAC2507047CE
:103F900040F400004FF00003013A5DDC12F1190F0C
:103FA000DCBF00F000407047C2F10002410021FA7E
:103FB00002F1C2F1200200FA02FC5FEA310040F196
:103FC000000053EA4C0308BF20EADC70704792F00F
:103FD000000F00F0004C02BF400010F4000F013A47
:103FE000F9D040EA0C0093F0000F01F0004C02BF42
:103FF000490011F4000F013BF9D041EA0C018FE7B1
:104000000CEAD15392EA0C0F18BF93EA0C0F0AD0B6
:1040100030F0004C18BF31F0004CD8D180EA0100DC
:1040200000F00040704790F0000F17BF90F0004F75
:10403000084691F0000F91F0004F14D092EA0C0F57
:1040400001D142020FD193EA0C0F03D14B0218BFEA
:10405000084608D180EA010000F0004040F0FE4030
:1040600040F40000704740F0FE4040F440007047CC
:104070004FF0FF0C1CEAD0521EBF1CEAD15392EA4B
:104080000C0F93EA0C0F69D0A2EB030280EA010C3B
:1040900049024FEA402037D04FF0805343EA1111D4
:1040A00043EA10130CF000408B4238BF5B0042F132
:1040B0007D024FF4000C8B4224BF5B1A40EA0C00D7
:1040C000B3EB510F24BFA3EB510340EA5C00B3EB09
:1040D000910F24BFA3EB910340EA9C00B3EBD10FF7
:1040E00024BFA3EBD10340EADC001B0118BF5FEA49
:1040F0001C1CE0D1FD2A3FF650AF8B4240EBC25072
:1041000008BF20F0010070470CF0004C4CEA502032
:104110007F32C2BFD2F1FF0340EAC250704740F481
:1041200000004FF00003013A37E792F0000F00F073
:10413000004C02BF400010F4000F013AF9D040EAF1
:104140000C0093F0000F01F0004C02BF490011F485
:10415000000F013BF9D041EA0C0195E70CEAD1537D
:1041600092EA0C0F08D142027FF47DAF93EA0C0F64
:104170007FF470AF084676E793EA0C0F04D14B0248
:104180003FF44CAF08466EE730F0004C18BF31F0FA
:10419000004CCAD130F000427FF45CAF31F00043F4
:1041A0007FF43CAF5FE700BF4FF0FF3C06E000BF8D
:1041B0004FF0010C02E000BF4FF0010C4DF804CDB0
:1041C0004FEA40024FEA41037FEA226C18BF7FEAC0
:1041D000236C11D001B052EA530C18BF90EA010FC2
:1041E00058BFB2EB030088BFC81738BF6FEAE17051
:1041F00018BF40F0010070477FEA226C02D15FEAED
:10420000402C05D17FEA236CE4D15FEA412CE1D058
:104210005DF8040B704700BF844608466146FFE71F
:104220000FB5FFF7C9FF002848BF10F1000F0FBD01
:104230004DF808EDFFF7F4FF0CBF012000205DF8FA
:1042400008FB00BF4DF808EDFFF7EAFF34BF01207F
:1042500000205DF808FB00BF4DF808EDFFF7E0FF18
:1042600094BF012000205DF808FB00BF4DF808ED69
:10427000FFF7D2FF94BF012000205DF808FB00BFCC
:104280004DF808EDFFF7C8FF34BF012000205DF8AE
:1042900008FB00BF4FEA40024FEA41037FEA226C6D
:1042A00002D15FEA402C08D17FEA236C02D15FEA99
:1042B000412C02D14FF0000070474FF001007047D1
:1042C000014B1868704700BF1000402070B50F4EBA
:1042D0000F4D761BB61018BF002405D0013455F8D9
:1042E000043B9847A642F9D10A4E0B4D761B05F0C8
:1042F00073FAB61018BF002406D0013455F8043BF9
:104300009847A642F9D170BD70BD00BFE497400048
:10431000E4974000EC974000E4974000024B0146D0
:10432000186800F00BB800BF10004020024B014697
:10433000186803F02DBA00BF100040202DE9F04F9F
:1043400001F10B06162E83B0054640F29E8036F032
:10435000070600F1BD80B14200F2BA8000F086FB92
:10436000B6F5FC7FC0F09382730A00F0B880042B8E
:1043700000F27981B30903F1390003F1380EC3006B
:10438000BF4F3B44A3F108015C68A14206D10CE099
:10439000002A80F2AA80E468A14206D0636823F074
:1043A00003039A1B0F2AF3DD70463C69DFF8E4E251
:1043B000744500F0AB81636823F003039A1B0F2A56
:1043C00000F39081002AC7F814E0C7F810E080F2EB
:1043D0009D80B3F5007F80F06181DB0803F1010C63
:1043E00099107A6857F83C80C4F8088001238B4004
:1043F00007EBCC0113430839E1607B6047F83C4090
:10440000C8F80C408210012494409C4200F28B803A
:104410001C4206D120F0030064001C4200F104009D
:10442000FAD007EBC009CC468046DCF80C309C453E
:1044300007D16DE1002A80F27B81DB689C4500F0AA
:104440006781596821F003018A1B0F2AF2DDD3F836
:104450000CC0D3F8088000939C19284646F001064A
:1044600042F001055E60C8F80CC0CCF808807C61A1
:104470003C61C4F80CE0C4F808E065605A5000F0F4
:10448000FBFA009B03F108041EE0102920D800F07D
:10449000EDFA102618230220794F3B44A3F10802BD
:1044A0005C68944200F03D816368E168A66823F08F
:1044B0000303234428465A68F16042F001028E60EB
:1044C0005A6000F0D9FA0834204603B0BDE8F08FF6
:1044D00000240C2320462B6003B0BDE8F08F402061
:1044E0004FF400734FF03F0E4AE72344E1685A68E7
:1044F000A66842F00102F16028468E605A6000F022
:10450000BBFA0834204603B0BDE8F08F23442846A8
:104510005A6842F001025A6000F0AEFA08342046B0
:1045200003B0BDE8F08FBC68636823F00308B045B2
:1045300004D3A8EB06030F2B00F38580DFF8589116
:10454000504BD9F800201B680132334404EB080AB1
:1045500000F0558103F580530F3323F47F6B2BF06C
:104560000F0B5946284600F0F7FA411C024600F0AE
:10457000FC80824500F2F780434B1968594419606A
:1045800000F04D81D9F8000001301BBFA2EB0A0AF0
:104590005144C9F80020196012F0070100F015819C
:1045A000C1F10800C1F580510244083102EB0B094A
:1045B000C9F30B09A1EB090949462846019300926A
:1045C00000F0CAFA431C9DE80C0000F04381801AF9
:1045D000484440F001001968BA604944BC42506048
:1045E000196017D0B8F10F0F40F2FB806068A8F196
:1045F0000C0222F0070204EB020E00F001004FF063
:10460000050C10430F2A6060CEF804C0CEF808C035
:1046100000F217811D4BBC681A68914288BF19606F
:104620001B4B1A689142626888BF196022F003022E
:104630009642A2EB060301D80F2B04DC284600F0BB
:104640001BFA002440E7A21943F0010346F00106DB
:1046500066602846BA60536000F00EFA08342046BF
:1046600003B0BDE8F08F142B71D9542B00F2A38056
:10467000330B03F16F0003F16E0EC30080E600BF41
:1046800040044020CC0B40209C0B4020C40B402019
:10469000C80B402048044020480840205A0A042AF9
:1046A0005BD9142A00F2AE8002F15C01C9005B32D2
:1046B00007EB010C7958ACF1080C8C4500F08880B0
:1046C0004A6822F00302934273D289688C45F7D17D
:1046D000DCF80C207B68E260C4F808C09460CCF879
:1046E0000C408FE6A11946F0010C42F00106C4F817
:1046F00004C0284679613961C1F80CE0C1F808E0CE
:104700004E60E25000F0B8F90834DDE67B6879E6E7
:1047100008F1010818F0030F0CF1080C7FF485AEC6
:104720002DE0DC68A34208BF02303FF43EAEBBE69A
:1047300019441C464A68DB6854F8086F42F00102CD
:104740004A602846F3609E6000F096F9BCE603F1EB
:104750005C0003F15B0EC30012E69A0902F1390115
:10476000C9003832A4E7BC4254D0BC68626822F069
:1047700003025DE759F80839994540F0868010F04A
:10478000030F00F1FF30F5D17B6823EA04037B605F
:1047900064009C423FF6C7AE002C3FF4C4AE1C42FE
:1047A00040467FF43EAE64001C4200F10400FAD0A3
:1047B00037E68C468CE7B3F5AA7F15D8F30B03F1E7
:1047C000780003F1770EC300DAE54FF48051EDE68F
:1047D0007B689210012101FA02F213437B6062466A
:1047E00079E70123536029E740F25452934222D8DB
:1047F000B30C03F17D0003F17C0EC300C0E503F1AF
:10480000100BAEE6542A29D81A0B02F16F01C90029
:104810006E324DE7204B196859441960B2E6CAF36D
:104820000B0000287FF4AEAE08EB0B03BA6843F030
:1048300001035360EEE67F204FF47E734FF07E0E4F
:104840009EE504F108012846009302F0A1FF009BB9
:104850001968DFE601204FF00009BCE6B2F5AA7F37
:1048600005D8DA0B02F17801C900773220E740F26F
:1048700054518A4205D89A0C02F17D01C9007C325C
:1048800016E74FF47E717E2212E77B6880E7F0081E
:1048900006F1080300E600BF9C0B4020844641EA75
:1048A000000313F003036DD1403A41D351F8043BA8
:1048B00040F8043B51F8043B40F8043B51F8043BFA
:1048C00040F8043B51F8043B40F8043B51F8043BEA
:1048D00040F8043B51F8043B40F8043B51F8043BDA
:1048E00040F8043B51F8043B40F8043B51F8043BCA
:1048F00040F8043B51F8043B40F8043B51F8043BBA
:1049000040F8043B51F8043B40F8043B51F8043BA9
:1049100040F8043B51F8043B40F8043B51F8043B99
:1049200040F8043B51F8043B40F8043B403ABDD208
:10493000303211D351F8043B40F8043B51F8043BAA
:1049400040F8043B51F8043B40F8043B51F8043B69
:1049500040F8043B103AEDD20C3205D351F8043B39
:1049600040F8043B043AF9D2043208D0D2071CBF05
:1049700011F8013B00F8013B01D30B88038060462E
:10498000704700BF082A13D38B078DD010F00303A4
:104990008AD0C3F10403D21ADB071CBF11F8013B14
:1049A00000F8013B80D331F8023B20F8023B7BE763
:1049B000043AD9D3013A11F8013B00F8013BF9D28E
:1049C0000B7803704B7843708B7883706046704728
:1049D00070B4860746D0541E002A41D0CAB203469E
:1049E00002E014F1FF343BD303F8012B9D07F8D10B
:1049F000032C2ED9CDB245EA05250F2C45EA0545F5
:104A000019D903F110022646103E0F2E42F8105C11
:104A100042F80C5C42F8085C42F8045C02F11002B7
:104A2000F2D8A4F1100222F00F0204F00F041032A9
:104A3000032C13440DD91E462246043A032A46F895
:104A4000045BFAD8221F22F003020432134404F05C
:104A500003042CB1C9B21C4403F8011B9C42FBD1D6
:104A600070BC704714460346C2E700BF014803F01C
:104A700029B900BF300C4020014803F025B900BF20
:104A8000300C40200FB400B5074983B004AB086870
:104A900053F8042B8168019300F0C0F903B05DF86E
:104AA00004EB04B0704700BF10004020F0B505468D
:104AB00089B008460C4600F043F9AB6B214F0494D3
:104AC0000126441C04A9022203940590AC680697B1
:104AD00007960191029253B3636E13F0010FB4F97C
:104AE0000C309AB201D1900525D5910406D4626E9E
:104AF00043F4005322F40052A3816266284601AABF
:104B0000214602F02BFF636E00280CBF0A254FF0F0
:104B1000FF35DA0702D4A3899B0502D5284609B0E0
:104B2000F0BDA06D03F0D0F8284609B0F0BD2846CE
:104B300002F08CFDD0E7A06D03F0C4F8B4F90C309E
:104B40009AB2D2E750954000024B01461868FFF731
:104B5000ADBF00BF1000402038B5074C002305460C
:104B600008462360FCF7E0F8431C00D038BD2368FA
:104B7000002BFBD02B6038BD440C402000290CBF1B
:104B8000022200224FF4806300F000B82DE9F043C8
:104B9000614C256883B004460F4690461E4615B109
:104BA000AB6B002B64D0B8F1020F06D0B8F1010F47
:104BB00000F29F80002EC0F29C80636ED80734D52F
:104BC0002146284602F0EAFC216B41B104F1400382
:104BD000994202D0284602F0DBFD00232363B4F99A
:104BE0000C300022A26162601A063AD423F44A63B0
:104BF00023F00303B8F1020FA3811DD001AB6A4675
:104C00002146284603F062F8A3891843A081002EAC
:104C100032D1009E3046FFF781FB074600286BD05B
:104C2000A38943F08003A38128E0A3899905C7D411
:104C3000A06D03F047F8C3E70025616E002604F17C
:104C4000430243F002030120A660CE07A381226045
:104C50002261606101D498053ED5284603B0BDE8C5
:104C6000F0832169284602F093FDB4F90C30BDE7CA
:104C7000284602F0EBFC96E7002FCBD0AB6B002B65
:104C800033D0009BB4F90C2027609E421CBF42F435
:104C90000062A281B8F1010F04BF42F00102A281BB
:104CA00092B212F00803276166610ED0D1071AD5BF
:104CB000656E7642002315F00105A661A36009D058
:104CC0000025284603B0BDE8F083A360656E15F0AB
:104CD0000105F5D19305C0D4A06D02F0F5FF28467B
:104CE00003B0BDE8F083A660F0E7284602F0AEFC12
:104CF000C7E74FF0FF35B0E7DDF80090B14504D0CD
:104D00004846FFF70BFB074620B9B4F90C304FF0CB
:104D1000FF3592E74E4683E7100040200000000078
:104D20000000000000000000000000000000000083
:104D30000000000000000000000000000000000073
:104D400090F800F06DE9024520F007016FF0000CCB
:104D500010F0070491F820F040F049804FF0000473
:104D60006FF00700D1E9002391F840F000F108004E
:104D700082FA4CF2A4FA8CF283FA4CF3A2FA8CF386
:104D80004BBBD1E9022382FA4CF200F10800A4FAED
:104D90008CF283FA4CF3A2FA8CF3E3B9D1E9042341
:104DA00082FA4CF200F10800A4FA8CF283FA4CF378
:104DB000A2FA8CF37BB9D1E9062301F1200182FA32
:104DC0004CF200F10800A4FA8CF283FA4CF3A2FA38
:104DD0008CF3002BC6D0002A04BF04301A4612BA46
:104DE000B2FA82F2FDE8024500EBD2007047D1E949
:104DF000002304F00305C4F100004FEAC50514F0D8
:104E0000040F91F840F00CFA05F562EA05021CBFA8
:104E100063EA050362464FF00004A9E72DE9F04F6D
:104E2000C1B01D468A4691460446089002F038FFFC
:104E3000036815931846FFF783FF0E9514901CB175
:104E4000A36B002B00F05F82DAF86430BAF90C2013
:104E500013F0010F93B202D1990540F175829F04BE
:104E60000AD4DAF8641042F4005321F40051AAF88D
:104E70000C30CAF864109BB21E0740F12382DAF8A6
:104E80001020002A00F01E8203F01A020A2A00F005
:104E90003E82002318461193139312932593249373
:104EA000189319930B9330AB239398461690179051
:104EB000CDF828A099F800304C46EBB1252B02D153
:104EC0001AE0252B03D014F8013F002BF9D1A4EBF5
:104ED00009058DB1249B259AC8F8009001332A4416
:104EE000072BC8F804502592249300F3018208F19F
:104EF00008080B9B2B440B932378002B00F0F083C6
:104F000000231A468DF86F3019460C939B4666783D
:104F10004FF0FF3304F10109099309F10109A6F1EA
:104F20002003582B00F2BF83DFE813F0E002BD033B
:104F3000BD034F03BD03BD03BD03BD03BD03BD03DF
:104F400054030803BD031A02E802BD0303033A0336
:104F50003A033A033A033A033A033A033A033A0369
:104F6000BD03BD03BD03BD03BD03BD03BD03BD0341
:104F7000BD03BD0349036203BD036203BD03BD035B
:104F8000BD03BD03A203BD03BD036F00BD03BD038D
:104F9000BD03BD03BD035900BD03BD031E03BD0317
:104FA000BD03BD03BD03BD03BD03BD03BD03BD0301
:104FB000BD0324037302620362036203B702730238
:104FC000BD03BD03BC02BD03C90271000D0347024E
:104FD000BD035202BD035B00BD03BD031F024BF0C6
:104FE000100B1BF0200F40F053830E9A1BF0100F94
:104FF000134640F0B4851BF0400F00F0B0851488D4
:105000000432002501230E9214E04BF0100B1BF02C
:10501000200340F032831BF0100240F089851BF022
:10502000400300F085850E9913460A4604320C8829
:105030000E9200254FF0000A8DF86FA009994A1CC6
:1050400000F00B822BF08002069254EA050240F039
:105050000A82002940F06F84002B40F02D851BF060
:1050600001030D9300F0688640AF302307F8413DFF
:10507000099B0D9A9342B8BF1346079300231093E0
:10508000BAF1000F02D0079B01330793069B13F080
:1050900002030F9302D0079B02330793069B13F082
:1050A000840540F01B830C9B079AA3EB020BBBF11A
:1050B000000F40F31383BBF1100F2599249A28DDCC
:1050C00043461024A846DDF820A00A9D06E0ABF177
:1050D000100BBBF1100F03F1080318DD0132B948C2
:1050E00024921031072A259183E81100EFDD23AACD
:1050F0002946504603F03CFC002840F06A83ABF19F
:10510000100BBBF1100F2599249A30ABE6DC454615
:1051100098460132AB4B24920BEB0104072A2594ED
:1051200088E8080800F3CD849DF86FA008F108080E
:10513000BAF1000F0ED0249B013301340DF16F0141
:105140000122072B2594249388E8060000F30A84A3
:1051500008F108080F9B6BB1249B013302341CA992
:105160000222072B2594249388E8060000F3068486
:1051700008F10808802D00F02E83099B0D9AA3EBFF
:10518000020ABAF1000F3BDDBAF1100F249B8E4DDD
:105190002BDD42462146B0464FF0100B2E46089CB0
:1051A0000A9D06E0AAF1100ABAF1100F02F10802F6
:1051B00017DD01331031072B2591249382E8400835
:1051C000F0DD23AA2946204603F0D2FB002840F058
:1051D0000083AAF1100ABAF1100F2599249B30AA76
:1051E000E7DC35460C464646904601335444072BCF
:1051F0002594249388E8200400F3A98308F1080883
:10520000069BDB0500F18582249B0D99C8F8007090
:1052100001330C44072B2594C8F80410249300F3A1
:10522000758308F10808069B59073BD50C9B079A24
:105230009D1A002D36DD102D249B21DD1026089FA0
:10524000DDF828A004E0103D102D08F1080817DD56
:1052500001335C4A24931034072B259488E84400DA
:10526000F1DD23AA5146384603F082FB002840F0C6
:105270003F82103D102D259C249B0DF1C008E7DCDA
:105280000133504A24932C44072B259488E82400AA
:1052900008DD23AA0A99089803F06AFB002840F069
:1052A0004783259C0B9B0C9A07998A42ACBF9B189D
:1052B0005B180B93002C40F03383002324930DF1F3
:1052C000C008F7E55146089801F096F8002838D054
:1052D000DAF86430DD0704D4BAF80C309C0540F1EC
:1052E000CA854FF0FF330B930B9841B0BDE8F08FA8
:1052F00023AA0A99089803F03BFB002840F0188382
:105300000DF1C008F5E5089802F0A0F99CE5BAF99E
:105310000E20002AFFF6BDADDAF86420D00705D4D0
:10532000990503D4DAF8580002F0CEFC2B464A4621
:105330005146089801F01EF80B900B9841B0BDE85B
:10534000F08FBAF80C309FE5DAF8580002F0BAFC9A
:10535000BAF90C2093B282E50C980E9340420C905F
:105360004BF0040B99F80060D7E5002A40F0DF8786
:10537000164B18931BF0200F40F0B9840E9A1BF0C7
:10538000100F134640F0DC831BF0400F00F0D88371
:10539000043314880E9300251BF0010F00F02283C4
:1053A00054EA050300F01E8330238DF870308DF829
:1053B00071604BF0020B02233CE64BF0200B99F896
:1053C0000060AAE598954000A895400078954000B7
:1053D0000E9A176800248DF86F40151D002F00F0FD
:1053E0004E86099A531C00F0CC852146384602F0BF
:1053F000E7FC002800F09786C31B0D9309940E95D7
:10540000CDF818B023EAE373079310949DF86FA0CA
:1054100036E6002A40F096871BF0200F40F05A84B1
:105420001BF0100F40F0A2831BF0400F00F09E8392
:105430000E99B1F900400431E51722462B460E9132
:10544000002A73F10003C0F2878409999DF86FA0C8
:105450004A1C4FF001037FF4F5AD54EA050200F059
:105460006C82CDF818B0012B00F00883022B40F0BD
:105470009582189830AF230904F00F0143EA0573B1
:105480002A091C461546435C07F8013D54EA05030A
:10549000F1D130ABDB1B0D93EAE54BF0400B99F8F3
:1054A00000603AE599F800606C2E03BF99F801603E
:1054B0004BF0200B09F101094BF0100B2DE5002AF0
:1054C00040F04C871BF0200F40F03F851BF0100F81
:1054D00040F0FC801BF0400F00F0F8800E9A13683B
:1054E00004320E92BDF82C201A80E3E499F8006093
:1054F00000297FF412AD012220210EE599F8006009
:105500002A2E09F1010000F0F186A6F13003092BE3
:10551000814698BF002000F23D8619F8016B00EB30
:10552000800003EB4000A6F13003092BF5D9099068
:10553000F5E44BF0800B99F80060EEE499F8006018
:1055400001222B21E9E40E9AAE4B146818937826B9
:10555000302304328DF870304BF0020B0E92002590
:105560008DF87160022365E5002A40F0E486A64BC1
:105570001893FFE60E99CDF818B00A688DF89820B8
:1055800000230A469A468DF86F30043201230793B0
:10559000CDF824A0CDF840A00E920D9326AF75E56E
:1055A000A6F13003002019F8016B00EB800003EB3B
:1055B0004000A6F13003092BF5D90C90AFE4002A86
:1055C00040F0C8864BF0100B26E74BF0010B99F822
:1055D0000060A2E40E9C23680C9318460028234622
:1055E00003F10403FFF6B8AE0E9399F8006094E45B
:1055F000002A40F0B7860E9D073525F0070303F11A
:1056000008020E921A6813925B681293129B139D04
:1056100023F00044284621464FF0FF327B4B03F035
:10562000DFFC002840F0A283284621464FF0FF32DD
:10563000764B03F0B7FC002840F09883169A139835
:10564000179B129903F0A4FC002840F035849DF8C4
:105650006FA06F4F6F4B032200212BF08000079249
:1056600009910690472ED8BF1F460D92109107E56D
:105670004BF0080B99F800604FE40E9D073525F0BC
:10568000070303F10802D3E900450E920023D1E499
:105690000E9D073525F0070303F10802D3E9004505
:1056A0000E920123C6E4002A40F05086C6B10023C2
:1056B00001229A4607928DF89860CDF818B08DF8BF
:1056C0006F30099310930D9226AFDFE40E9A1368A2
:1056D00004320E920B9A1A60FFF7ECBB259C27E56B
:1056E000259BDDF828A0002B40F09485002324930F
:1056F000DAF8643013F0010FBAF80C3002D19A05D1
:1057000040F149825B063FF5ECAD0B9841B0BDE836
:10571000F08F652E40F3B280169A1398179B12995A
:1057200003F02CFC002800F06081249B3A4AC8F862
:105730000020013301340122072B25942493C8F85B
:10574000042000F3BF8308F108081D9B119A259CD3
:10575000934203DB069BDF077FF565AD249B14991D
:10576000159AC8F8002001330C44072BC8F8041020
:105770002594249300F3F88308F10808119B5E1E1A
:10578000002E7FF750AD102E249B244D40F3DD8179
:105790001027DDF820A0DDF828B005E008F10808A2
:1057A000103E102E40F3D18101331034072B259485
:1057B000249388E8A000F1DD23AA5946504603F05F
:1057C000D7F8002840F0CD83259C249B0DF1C0081C
:1057D000E6E7AA468CE70C9B079AA3EB020ABAF10C
:1057E000000F7FF7CAACBAF1100F249B0B4D39DDC7
:1057F00042462146B0464FF0100B2E46089C0A9DAB
:1058000015E000BF7895400064954000FFFFEF7FF2
:10581000589540005495400094954000A89540004C
:10582000AAF1100ABAF1100F02F1080216DD0133D5
:105830001031072B2591249382E84008F0DD23AA3C
:105840002946204603F094F80028C2D1AAF1100A94
:10585000BAF1100F2599249B30AAE8DC35460C4696
:105860004646904601335444072B2594249388E8F8
:10587000200400F3648208F108087EE4119B249E52
:10588000012B40F3FD81013601340123072E2594BD
:105890002496C8F80070C8F8043000F30E8208F1AE
:1058A0000808149A159BC8F8003001361444072ED6
:1058B00025942496C8F8042000F32E8208F10808E5
:1058C000179B169A1398129903F058FB119B002806
:1058D00040F00681013B013601371C44072E249617
:1058E0002594C8F80070C8F8043000F3D98108F195
:1058F0000808199AC8F80420013614441FAB072E73
:1059000025942496C8F800307FF78BAC23AA0A9917
:10591000089803F02DF858B9259C0DF1C00882E4D1
:1059200023AA0A99089803F023F800283FF4C5AC8D
:10593000DDF828A0DCE6DDF818B0012B00F02181AD
:10594000022B27D1CDF818B00024002591E523AA19
:105950000A99089803F00CF80028E9D1259C0DF16C
:10596000C0084DE423AA0A99089803F001F800281A
:10597000DED1259C0DF1C008FFF7ECBB23AA0A99E4
:10598000089802F0F5FF0028D2D1259C0DF1C0083F
:10599000FFF7F0BBCDF818B00024002530A900E0D7
:1059A0003946E20842EA4572E80804F00703054672
:1059B0001446303354EA050201F8013C01F1FF3787
:1059C000EED1069AD2077FF564AD302B3FF461AD7E
:1059D0003023023907F8013C30AB5B1A0D930F46B8
:1059E000FFF746BB0223FFF725BB1D99002940F3B3
:1059F0007482109B119A9342A8BF1346002B1E4637
:105A00000DDD249BC8F8007001333444072B259426
:105A1000C8F80460249300F3248308F10808109B5D
:105A2000002EA8BF9B1B002B1E4640F3D080102EDB
:105A3000249BC04D40F3B78022464FF0100ADDF89A
:105A400020B00A9C05E008F10808103E102E40F333
:105A5000A98001331032072B2592249388E8200473
:105A6000F1DD23AA2146584602F082FF002840F0CB
:105A70002483259A249B0DF1C008E6E7002D08BF7A
:105A80000A2C7CD330AF204629460A22002303F09B
:105A9000E5FA303207F8012D2046294600230A2274
:105AA00003F0DCFA04460D4654EA0503EBD130ABB3
:105AB000DB1B0D93FFF7DCBA099B0D9330AFFFF7AB
:105AC000D7BA23AA0A99089802F052FF00287FF457
:105AD0002FAF9DF86FA0259C0DF1C008FFF728BBE4
